:020000040000FA
:0600000002011A0221C3F7
:03002B0002293572
:0300530002223650
:03006B0002290364
:1000830002202FE5C754F84401F5C7790122000087
:100093000080FB120086B90003020104E479217891
:1000A30008B800028004F709D8FCE479297802B87B
:1000B30000028004F709D8FCE490028178C4790730
:1000C3008002F0A3D8FCD9FA781A90014A7A01BACF
:1000D30000028007E493A3F608DAF97A447B0990D7
:1000E300014B783B79048015E493A3AD82AE838AF8
:1000F300828B83F0A3AA82AB838D828E83D8E9D9C6
:10010300E77582497583A7740312012C7582917573
:100113008300740012012C75D00075813F7518811E
:10012300751902759F00020096C09FF59FE473D076
:100133009F22D083D082C09FE493C0E0740193C018
:10014300E0740293F59F2201140953696D706C6585
:10015300424C455065726970686572616C05125056
:10016300002003020A000201050302F0FF53696D38
:10017300706C6520424C45205065726970686572E9
:10018300616C910400009704FF0000B40000280094
:100193002800283075A000A000A000A000000800DF
:1001A30008E001F000100010001000100010001013
:1001B3000050005000500010001000D00700000055
:1001C3000000000F0001000500307507001000015A
:1001D3000081FF00000000FF9B06B906A106FF0295
:1001E300020208025000A0000000E803022281017D
:1001F30000009B8102AC81010000DB0902B2810196
:100203000000B90202AC81010000DC0902B48101E3
:100213000000CF0202AC81010000DD0902B68101BA
:100223000000D10202AC81010000DE0902B881089E
:100233000000D20202AC81010000DF0902BA810191
:100243000000E009FF0100FF200222810100009E5F
:100253008102AC81010000440A02BC81000000005D
:100263000002B0810300001F03710C710C710C714B
:100273000C710C710C710C710C710C710C710C7193
:100283000C710C0B0F230F050FFFFF02020202027A
:1002930002020202010D000000100102228101008E
:1002A30000A78102AC81010000870A02E4810100FA
:1002B30000620702AC81010000880A02CE810100BE
:1002C30000158102AC81010000890A02CC81010082
:1002D30000F98002AC810100008A0A02CA81010090
:1002E30000938002AC810100008B0A02C8810100E7
:1002F30000818002AC810100008C0A02C6810100EA
:1003030000B78002AC810100008D0A02C4810100A4
:1003130000A58002AC810100008E0A02C2810100A7
:1003230000078102AC810100008F0A02C081010035
:1003330000900A01E803053F100AFF00013075032E
:1003430002010600000000000000000000000000A1
:10035300000000000000000000000000000000FF9B
:10036300FF0600800CE8030A4368617261637465E9
:100373007269737469632031000243686172616357
:10038300746572697374696320320008436861722B
:100393006163746572697374696320330010436821
:1003A30061726163746572697374696320340002F6
:1003B300436861726163746572697374696320353C
:1003C30000022281010000A48102AC8101000063CC
:1003D3000B02D2810300002E0902DE8101000064BA
:1003E3000B02AC81010000750B02D4810100002FC8
:1003F3000902DE81010000760B02AC810100008757
:100403000B02D681020000300902DE810100008860
:100413000B02AC81010000990B02D881000000316E
:100423000902B081030000320902DE810100009A53
:100433000B02AC81010000AB0B02DA81040000382F
:100443000902DE81010000AC0B104B65792050726C
:100453006573732053746174650002228101000087
:10046300A18102AC81010000450C02E28100000081
:100473003D0902B0810300003E0902DE8101000054
:10048300460C12013550F702120135ACF902120184
:1004930035BEFA021201355EFB02120135AB96033B
:1004A300120135C29603120135F396031201352E5C
:1004B30097031201355897031201358297031201EE
:1004C30035999703120135B09703120135C7970386
:1004D300120135F097031201350398031201351900
:1004E30098031201352C9803120135539803120116
:1004F30035ABA702120135AFA802120135E7A802F6
:100503001201350AA90212013515A9021201353863
:10051300A90212013547AA021201351CAB021201CE
:100523003597AB021201351FAC021201355AAC02EA
:1005330012013591AC021201351FAD02120135F8DB
:10054300AD0212013558AE0212013563AE0212013B
:1005530035E2AE02120135E5AE02120135E8AE0214
:1005630012013577AF021201357AAF02120135AAB3
:10057300AF02120135D4AF02120135C2B00212012B
:100583003574B102120135A9E002120135D1E0023E
:10059300120135FFE00212013536E10212013594F2
:1005A300E102120135DFE1021201352AE2021201F2
:1005B300356AE202120135B0E202120135DEE202CF
:1005C3001201359BE302120135A5E302120135B294
:1005D300E302120135E5E302120135B1E40212012F
:1005E30035BDE402120135D5E402120135DFE40220
:1005F300120135ABA403120135B9A403120135D19D
:10060300A403120135E9A40312013595C9011201AE
:100613003541CA01120135BCCA01120135DDCB01D6
:1006230012013519CC01120135C2CC01120135A9D1
:10063300CD011201350DCF0112013564CF01120135
:1006430035E5CF01120135D5D00112013522D10193
:10065300120135A8D101120135DAD101120135EEAB
:10066300D30112013530D4011201354ED4011201E8
:1006730035D1D401120135A5D5011201356DD6014D
:10068300120135F8C902120135CBCA0212013574C1
:10069300CB02120135C7CB0212013577CC0212010E
:1006A3003503CD02120135EFCD021201351ECE0204
:1006B30012013531CF0212013579CF021201354EC5
:1006C300D0021201358AD002120135A6D0021201DE
:1006D30035C5A603120135008003120135168003C8
:1006E3001201353C80031201355881031201356232
:1006F30081031201359782031201358F830312019F
:10070300358ED602120135BED702120135F1D7025A
:100713001201353BD80212013502DA0212013526E5
:10072300AA0112013590AA01120135EFAB011201A2
:1007330035FFAB011201352CAC0112013583AC013D
:100743001201352CAD0112013533AE01120135FD15
:10075300AE011201355DB001120135A0B0011201E5
:100763003545B10112013592B101120135B8B1011C
:10077300120135C6B301120135CBB301120135D0D5
:10078300B5011201351DB60112013590B6011201F2
:1007930035C3B60112013565B7011201350EB80133
:1007A30012013546B80112013549B80112013591DC
:1007B300B801120135D1B80112013528B90112016E
:1007C30035398D03120135518D03120135998D038E
:1007D300120135AF8D03120135F68D031201350A6F
:1007E3008F03120135978F03120135E28F03120134
:1007F30035642900120135702900120135AB290037
:10080300120135F02900120135B02A0012013536E4
:100813002B001201359B2B00120135C72B0012014F
:1008230035002C001201353E2E0012013522300016
:100833001201350832001201354B3300120135998C
:100843003500120135AB3600120135F637001201BF
:10085300350639001201352339001201355E39009E
:10086300120135803900120135E33900120135A434
:100873003E00120135393F001201358A3F00120153
:1008830035B13F001201350340001201352140000C
:100893001201357B4000120135644100120135DA43
:1008A30042001201355E430012013566E502120172
:1008B3003570E502120135B3E502120135CEE502CA
:1008C3001201355EE60212013586E602120135C3D6
:1008D300E602120135FAE60212013523E70212019C
:1008E3003598E702120135ADE702120135C2E7027E
:1008F300120135F3E70212013507E8021201352C24
:10090300E80212013566E80212013592E80212018B
:1009130035CAE80212013549E90212013592E902AA
:10092300120135BCE902120135E7E902120135C4AF
:100933009F03120135E99A02120135179B02120136
:1009430035689C02120135449D02120135639D02F4
:10095300120135E19D021201351A9E02120135740E
:100963009F021201351FA002120135A7A202120134
:100973003545A30212013545A40212013543A502F0
:100983001201359FA6021201352AA7021201354032
:100993009D03120135A99D03120135FD9D0312012B
:1009A30035249E03120135559E0312013596EE023E
:1009B30012013503EF021201354AEF0212013562CB
:1009C300F0021201355EF10212013541F202120109
:1009D30035E5B10212013527B202120135F9B2022F
:1009E300120135D2B302120135CCB402120135AE75
:1009F300B50212013517B602120135CDB602120146
:100A03003541B702120135ADB702120135D6B7022F
:100A130012013550B802120135E9B8021201354E00
:100A2300B90212013563B902120135A9B9021201E3
:100A330035C2B90212013527BA021201352ABA02A8
:100A4300120135408A03120135688A03120135A663
:100A53008A03120135648B03120135CB8B03120118
:100A630035E78B031201350F8C031201353F8C03DD
:100A73001201354E8C03120135CB8C03120135F173
:100A83008C0312013515BA01120135F3BB011201B2
:100A9300353FBE011201357BBE01120135A8BE01EF
:100AA30012013592BF01120135DDBF011201352854
:100AB300C0011201353AC0011201357AC001120199
:100AC30035AFC001120135FDC0011201352CC10142
:100AD3001201354FC1011201359CC10112013521AB
:100AE300C2011201353BC4011201357EC601120158
:100AF30035BFC60112013561C801120135A2C80113
:100B030012013515C9011201356BC901120135D422
:100B13008D02120135D28E021201356B950212013C
:100B2300358C9702120135579902120135BF9A028B
:100B3300120135C54300120135804400120135AD61
:100B43004400120135F3440012013533460012010B
:100B530035C947001201354348001201355E48008C
:100B6300120135D94800120135334A001201359379
:100B73004B00120135994C00120135FA4D00120158
:100B830035134E00120135714E001201355F4F00CF
:100B9300120135924F001201350250001201357CCB
:100BA3005000120135C65000120135905100120158
:100BB30035655200120135445300120135CF5300FD
:100BC3001201353D5400120135B15400120135DCD8
:100BD30054001201359B55001201350057001201D4
:100BE300351D57001201353C57001201352D5800B1
:100BF3001201355258001201357C5800120135F7A5
:100C03005800120135515900120135BA5A00120128
:100C130035685B00120135A95B00120135008002C3
:100C23001201354E80021201355A80021201353805
:100C330081021201356981021201359A8102120182
:100C4300351A8202120135528202120135A4820240
:100C5300120135E18202120135FE840212013524AC
:100C630087021201350F8902120135F98A02120136
:100C7300355929001201350A96011201353A9601B8
:100C8300120135139D01120135989E01120135950C
:100C9300A4011201357DA501120135C3A50112017D
:100CA30035E6A50112013517A60112013520A6016B
:100CB3001201352AA60112013518A7011201350EBA
:100CC300A801120135D95B001201353C6000120105
:100CD300354260001201357D6700120135966C00C4
:100CE30012013587FB021201351DFC021201353357
:100CF300FC0212013565FC02120135D9FC02120116
:100D03003517FD02120135CFFD0212013548FE02EF
:100D130012013551FE021201355DFE0212013572D8
:100D2300FE02120135B0FE02120135C6FE021201A7
:100D33003525FF021201354DFF0212013503F3027F
:100D430012013510F3021201352AF302120135693B
:100D5300F302120135A7F3021201350CF40212015A
:100D63003521F4021201352CF40212013539F40253
:100D730012013550F4021201355EF4021201356995
:100D8300F40212013575F40212013584F4021201E2
:100D9300358FF402120135B2F40212013559F5020E
:100DA30012013569F50212013583F502120135A0EE
:100DB300F502120135BCF502120135E1F50212010B
:100DC30035ECF50212013501F60212013515F60272
:100DD30012013576F6021201357CF60212013582D4
:100DE300F60212013588F602120135A0F60212014D
:100DF30035D3F6021201358BD8011201350FD90113
:100E0300120135BED9011201351DDB011201353E38
:100E1300DD011201352ADE011201355FDE01120107
:100E23003581DE0112013530DF0112013528E10180
:100E330012013551E101120135E3E10112013515CA
:100E4300E20112013522E20112013579E2011201B8
:100E5300359FE2011201350CE5011201350FE60160
:100E630012013567E6011201354C71001201355646
:100E730072001201353D73001201354773001201F0
:100E8300356973001201357573001201350E750053
:100E93001201353D7500120135597600120135B244
:100EA3007600120135187800120135F77800120127
:100EB30035537900120135C07900120135FB7900F1
:100EC3001201353A7A00120135F37C001201350D17
:100ED3007D00120135997D00120135A77D001201B5
:100EE30035007E001201350E7E00120135817E0031
:100EF300120135E57E001201352F7F001201359A6C
:100F0300F401120135BCF401120135E2F6011201BC
:100F130035F7F9011201350FFB01120135C2FB014F
:100F2300120135A4FC01120135149A03120135395B
:100F33009A03120135AB9A031201357EC2021201E4
:100F43003587C20212013590C20212013567C3020E
:100F530012013518C5021201354EC502120135883A
:100F6300C502120135BEC502120135F8C5021201D0
:100F7300352CC60212013558C602120135A1C6022C
:100F8300120135DBC60212013524C7021201357C7A
:100F9300C702120135B1C7021201350CC802120192
:100FA3003546C80212013597C802120135CDC80271
:100FB30012013507C90212013535C902120135582C
:100FC300C90212013582A503120135AEA503120130
:100FD3003509A60312013513A60312013523A6030F
:100FE3001201351BD10212013525D10212013563DD
:100FF300D102120135ACD102120135E6D102120140
:101003003540D20212013561D2021201356AD20291
:10101300120135BBD202120135E4D202120135EEC0
:10102300D2021201355AD302120135E8D30212015A
:101033003536D4021201356CD402120135F3D402D1
:1010430012013533D5021201356BD5021201357DFC
:10105300D5021201359CD502120135A5D502120124
:101063003564D6021201357DFF02120135E1A10379
:10107300120135AC9403120135E2940312013518C1
:1010830095031201357196031201352DA603120142
:101093003543A6031201354DA60312013597A60366
:1010A3001201350FEA0212013528EA02120135CC8A
:1010B300EA021201350CEB0212013525EB02120193
:1010C3003559EB02120135A6EB02120135DAEB02B8
:1010D3001201351CEC021201351CEE021201358996
:1010E300EE02120135DBA20312013504A303120140
:1010F300352DA30312013545A30312013587A3033D
:101103001201352F870312013554870312013580ED
:101113008703120135EAA703120135E781011201A2
:10112300354B8401120135FD8501120135EF86012E
:10113300120135748701120135F287011201351F3F
:101143008801120135438B01120135BD8B01120158
:1011530035AC8C01120135E68C01120135268D0167
:10116300120135E08E01120135338F011201357CF6
:101173008F01120135EA8F011201351C9001120112
:10118300353490011201354991011201355991010C
:10119300120135899201120135AB9201120135E139
:1011A3009201120135869401120135C59401120191
:1011B30035E59501120135E47F00120135A1A7033E
:1011C300120135E0A703120135E6FF01120135CC08
:1011D300A303120135DCA303120135F1A3031201AA
:1011E30035A5A403120135DDA00312013562A10365
:1011F300120135C8A1031201359B9E03120135C2AA
:101203009E03120135189F031201352A9F03120111
:10121300357A9F03120135B89F03120135BB9F0333
:10122300120135B5DB02120135C9DB021201354269
:10123300DC021201351BDD02120135D9DF02120176
:10124300353EE00212013595E002120135F87F00C8
:1012530012013577920312013502940312013563AB
:101263009403120135A99403120135B99B031201AA
:10127300350E9C031201357C9C03120135EC9C0353
:101283001201350C90031201353690031201350B10
:101293009103120135FF91031201354EBA02120177
:1012A300350BBB0212013546BB021201356EBB0280
:1012B300120135D0BB021201351CBC021201357577
:1012C300BC0212013506BD0212013508BE0212012D
:1012D30035C5BF0212013547C002120135ACC00249
:1012E300120135C3C002120135D3C10212013511F7
:1012F300C202120135B5E6011201353FEA011201BE
:1013030035C7EB011201351EEC011201353DEC012D
:10131300120135BBEC0112013559EE011201353DC5
:10132300EF0112013527F301120135F7F301120121
:1013330035998303120135DE8303120135FB8303E1
:10134300120135AC8403120135FF8403120135DA2F
:101353008503120135F686031201356598031201E0
:1013630035AA9803120135FE98031201357C9903BF
:10137300120135DB9903120135B87F00120135C81C
:10138300FF01E066701008A3E066700A08A3E06638
:10139300700408A3E06622C3E7960809E7960809E4
:1013A300E7960809E79622C3E09608A3E09608A308
:1013B300E09608A3E09622C008C3E096F50808A3C8
:1013C300E096420808A3E096420808A3E096450881
:1013D3007001D3D00822080808EAC0E0EBC0E08619
:1013E300F0E7A4FA180986F0E7A42AFA180986F0A8
:1013F300E7A42AFA180986F0E7A42AFA1986F0E77F
:10140300A4FBE5F02AFA190886F0E7A42BFBE5F024
:101413003AFA190886F0E7A42BFBE5F03AFA181814
:101423000986F0E7A4C5F02BFBE43AFA1908E7C5EF
:10143300F0C6A426F6E5F03BFBE43AFA1886F0E79B
:10144300A4F6E5F00826F6E43B08F6E43A08F6D0FD
:10145300E0FBD0E0FA22E4CFC0E0E4CEC0E0E4CD8C
:10146300C0E0E4CCC0E075F020E626F608E633F6EB
:1014730008E633F608E633F6181818EC33FCED33B8
:10148300FDEE33FEEF33FFC3EC9709ED9709EE97BB
:1014930009EF97191919400FFFEC97FC09ED97FD18
:1014A30009EE97FE191906D5F0BFECF709EDF70918
:1014B300EEF709EFF7191919D0E0FCD0E0FDD0E001
:1014C300FED0E0FF226016080808C6C313C618C67C
:1014D30013C618C613C618C613C6D5E0EA22700988
:1014E300080808226016181818C6C333C608C6337E
:1014F300C608C633C608C633C6D5E0EA22E627F6D1
:101503000809E637F60809E637F60809E637F6224A
:10151300E026F608A3E036F608A3E036F608A3E0D3
:1015230036F622E026F008A3E036F008A3E036F012
:1015330008A3E036F022C3E697F60809E697F60813
:1015430009E697F60809E697F622C3E096F008A3A2
:10155300E096F008A3E096F008A3E096F022E657A1
:10156300F60809E657F60809E657F60809E657F6B6
:1015730022E056F608A3E056F608A3E056F608A3C1
:10158300E056F622E056F008A3E056F008A3E05632
:10159300F008A3E056F022E0F608A3E0F608A3E083
:1015A300F608A3E0F622E6F008A3E6F008A3E6F0C7
:1015B30008A3E6F022E0FAA3E0FBA3E0FCA3E0FD2E
:1015C30022EAF0A3EBF0A3ECF0A3EDF022E0F8A302
:1015D300E0F9A3E0FAA3E0FB22E8F0A3E9F0A3EA31
:1015E300F0A3EBF022CAC0E0E6F0A308DAFAD0E0F9
:1015F300FA22CAC0E0E0A3C582CCC582C583CDC5AB
:1016030083F0A3C582CCC582C583CDC583DAE6D07A
:10161300E0CA22C3E498F8E499F91216578026C366
:10162300E49AFAE49BFBE920E7E9121657E498F8F9
:10163300E499F922C3E498F8E499F9121657E49867
:10164300F8E499F9C3E49AFAE49BFB22EB20E7CF91
:10165300E920E7E0B90010BB0008E88AF084F8AAA3
:10166300F022E4FBC8FA22EB70227B10C833C8C90E
:1016730033C9335007C39AC3DBF280069A50012A59
:10168300DBEAC833F4C8C933F4C9FA2275F008E4B5
:10169300C833C8C933C933C99AC99B5004C92AC9B5
:1016A3003BD5F0ECFBC833F4C8E4C9FA22600D085B
:1016B300C6A2E713C618C613C6D5E0F322600C080A
:1016C300C6C313C618C613C6D5E0F422700422603D
:1016D3000D18C6C333C608C633C6D5E0F418222591
:1016E3001810AF08F518400C15198008F5184002BA
:1016F3001519D2AF2200C0D0251810AF08F5185025
:101703000C05198008F51850020519D2AFD0D02264
:101713002518F58210AF08F518400C15198008F547
:101723001840021519D2AF851983222518F582E4D2
:101733003519F583222518F8E43519F9222518FA05
:10174300E43519FB222518FCE43519FD22E4732541
:1017530018C582C0E0E51934FFC583C0E0E518C3AE
:10176300958224F810AF088583198582188008852F
:101773008319858218D2AFCEF0A3E520F0A37808B1
:10178300E608F0A3DEFAEFF0A3E58124FAF8E60811
:10179300F0A3E608F0A3E608F0A30808E608F0A320
:1017A300E608F0A315811581D0E0FED0E0F815819D
:1017B30015811581E8C0E0EEC0E0222518C582C07E
:1017C300E0E51934FFC583C0E0E518C3958224F929
:1017D30010AF08858319858218800885831985824F
:1017E30018D2AFCEF0A3E520F0A37808E608F0A363
:1017F300DEFAEFF0A3E58124FBF8E608F0A3E608A0
:10180300F0A30808E608F0A3E608F0A31581158104
:10181300D0E0FED0E0F815811581E8C0E0EEC0E02D
:1018230022851983851882E0A3FEE0A3F5207808BA
:10183300E0A3F608DFFAE0A3FFE0A3C0E0E0A3C063
:10184300E0E0A3C0E0E0A3C0E0E0A3C0E010AF0885
:101853008582188583198008858218858319D2AFFC
:10186300D083D082020132851983851882E0A3FEDA
:10187300E0A3F5207808E0A3F608DFFAE0A3FFE091
:10188300A3C0E0E0A3C0E0E0A3C0E0E0A3C0E01099
:10189300AF08858218858319800885821885831986
:1018A300D2AFD083D08222C0D02518C582C0E0E554
:1018B3001934FFC583C0E0E518C3958224F310AF44
:1018C300088583198582188008858319858218D233
:1018D300AFC8F0A3E9F0A3EAF0A3EBF0A37908E71C
:1018E30009F0A3D8FAECF0A3EDF0A3EEF0A3EFF028
:1018F300A3D0E0F0A3D0E0F0A3D0E0F0A3E520F084
:10190300A3E5F0F0A322851983851882E0C0E0A344
:10191300E0F9A3E0FAA3E0FBA37808E0F608A3DF6D
:10192300FAE0FCA3E0FDA3E0FEA3E0FFA3E0C0E038
:10193300A3E0C0E0A3E0F5D0A3E0F520A3E0A3F586
:10194300F010AF088583198582188008858319856F
:101953008218D2AFD082D083D0E0F8D0E0327404C2
:101963008006740280027401C0E0F404121713D0DD
:10197300E01215E8227404800474028000CCC0E0F5
:10198300EDC0E0E518C39CCCAD1950011D10AF06A6
:101993008C188D1980068C188D19D2AF1215F5D0BD
:1019A300E0FDD0E0FC22D083D082E9C0E0E493A341
:1019B300C386F0C5F095F0F908E493A386F0C5F06B
:1019C30095F0700BE493A3C3994005E9048002A347
:1019D300E475F002A42582F582E5F03583F583D022
:1019E300E0F9E493A3C0E0E493C0E022D083D08283
:1019F300ECC0E0EDC0E0E493A3FCE493A3FDED4C65
:101A0300600D121A3BEC24FFFCED34FFFD80EFE484
:101A130093A3FCE493A3FDED4C600D121A7AEC241E
:101A2300FFFCED34FFFD80EFD0E0FDD0E0FCE4935C
:101A3300A3C0E0E493C0E022C0E0C3E4939608743B
:101A430001939618400FE493667008087401936637
:101A53001870007019A3A3C3E493960874019396B6
:101A630018A3A3400DD0E0D0E0D0E0021A2BA3A32B
:101A7300A3A3A3A3D0E022C0E0C0F088F0E4936660
:101A830070080874019366187000A8F0A3A3700B84
:101A9300D0F0D0E0D0E0D0E0021A2BA3A3D0F0D056
:021AA300E0223F
:101AA80074F51217BEEAFEEBFFEE2434F8EF3400AB
:101AB800F988088909EE2435F582EF3400F583E0CA
:101AC800F8EE2437F582EF3400F583E0F50AEC856B
:101AD8000AF0A4FCAAF0850AF0EDA42AFDE82CF887
:101AE800E43DF97A257B00121657EA8508828509B4
:101AF80083F0F8740758F97401B900028004C333FD
:101B0800D9FCFAE8131313541FF8EE28F8EF340041
:101B1800F9E8245DF582E93400F583E05A6008EEBF
:101B28002434F582EF802CEE2434F582EF3400F56E
:101B380083E0C0E0EE2436F582EF3400F583E0F56B
:101B4800F0D0E084A8F0EE28F8EF3400F9E8243863
:101B5800F582E93400F583E0F97F0402186A74F528
:101B68001217BEEAFEEBFFEE2434F582EF3400F5DF
:101B780083E0C0E0EE2435F582EF3400F583D0E051
:101B8800F08E828F83A3A3A3A3A3A3A3C082C08341
:101B98008E828F83A3A3A3A3A3E0F8A3E0F9D08345
:101BA800D082E0C398F508A3E099F509EE247FF503
:101BB80082EF3400F583E064017069EE2480F582D9
:101BC800EF3400F583E0F8A3E0F98E828F83A3A3B6
:101BD800A3A3A3A3A3E0FCA3E0FD8E828F83A3A30A
:101BE800A3A3A3E0FAA3E0FBC3EA9CEB9D5010C3B8
:101BF800EC98ED99402EC3EA98EB995027800EC3D4
:101C0800EA98EB994007C3EC98ED9940177CE17D81
:101C180004EEFAEFFB120BCFEE247FF582EF3400CF
:101C2800F583E4F0EE2434F8EF3400F9E8FCE9FD3C
:101C3800EE2435F582EF3400F583E0F8EE2437F52D
:101C480082EF3400F583E0F50AE508850AF0A4F58B
:101C580008AAF0850AF0E509A42AF509E82508F894
:101C6800E43509F97A257B00121657EA8C828D83B0
:101C7800F0F8740758F97401B900028004C333D925
:101C8800FCFAE8131313541FF8EE28F8EF3400F9A0
:101C9800E8245DF582E93400F583E05A6008EE2413
:101CA80034F582EF802CEE2434F582EF3400F5838E
:101CB800E0C0E0EE2436F582EF3400F583E0F5F07D
:101CC800D0E084A8F0EE28F8EF3400F9E82438F5DD
:101CD80082E93400F583E0F91228EF021B61C08223
:101CE800C083851882851983E0F8A3E0F9C3EA9CCC
:101CF800EB9D5010C3EC98ED99401BC3EA98EB9903
:101D08005014800EC3EA98EB994007C3EC98ED99FC
:101D18004004790180027900D083D08222EAC39CF2
:101D2800FAEB9DFB2274EF1217BE9003A7E064083C
:101D38006005E06407702A9061C8E060249003D5CC
:101D4800E0F4601DE0F875F003A4C8AAF02AF9745D
:101D5800D728FE740339FF8E828F83A3A3A3E07074
:101D680003021E5D906060E0C0E0EE2468F582EF3B
:101D78003400F583D0E0F0750C4A750D0575080040
:101D8800750900E5D914F50AE5D95403F50E60176D
:101D98007403650E605CE50A6010EE2467F582EF57
:101DA8003400F583E07003021E42900545E06401AB
:101DB800602AEE2482F582EF3400F583E06004782F
:101DC8000480027800850A08E508C398FA95E0FBC4
:101DD800120A978A088B09EA45097005120DD980FD
:101DE80074EE2482F582EF3400F583E070048A0CE7
:101DF8008B0DE50A6012850C82850D83F50BE5D9FC
:101E0800F0A3150BE50B70F6EE2482F582EF340093
:101E1800F583E0604474FC250AF50A780C1219650C
:101E2800AC0AA90EEEFAEFFB120C6B74021216F84C
:101E3800E97026AA08AB09121271793D8E828F8348
:101E4800A3A3A3A3E0FA7B0012096BEEFAEFFB123F
:101E58000BE7120C7D790080747403650E6056855B
:101E68000A107511007810121965AC0CAD0DAA088E
:101E7800AB09120C4774021216F8EE2468F582EFCB
:101E88003400F583E064807004747F8001E0F50C11
:101E9800780C121969E50EF50C780C121969A90A63
:101EA800AC08AD099003D5E0FA7B0012092F740243
:101EB8001216F880139003A7E06408600BAC0CAD11
:101EC8000DEEFAEFFB120CD7120DE579017F0A022D
:101ED800186A74F51217BE74FC1216E2EAFEEBFFDC
:101EE8008908A2AFE433F509C2AF806AEE2463F82B
:101EF800EF3400F97A007B00A2AFE433F50AC2AFF1
:101F080088828983E0FCA3E0FDEC4D603A888289F1
:101F180083E0FAA3E0FB8A828B83E0FCA3E0FD88E0
:101F2800828983ECF0A3EDF08A828B83E4F0A3F03E
:101F380088828983E0FCA3E0FDEC4D700A888289E1
:101F480083A3A3E4F0A3F0E50AA2E092AF12127112
:101F58009004E8E004F0EE2463F582EF3400F583A2
:101F6800E0F8A3E0F9E849603DEE2463F582EF3438
:101F780000F583E02402FAA3E03400FBEA2402F52A
:101F88000AEB3400F50B780A1219658A828B83E014
:101F9800FCA3E0F9EEFAEFFB120C0B74021216F830
:101FA800E97003021EF49004E8E060639004E9E03D
:101FB800F89004E8E0C398500C74026508705090DB
:101FC80004EAE0604A8E828F83A3A3A3A3E0851866
:101FD80082851983F0A3E4F09004E8E0F874021213
:101FE800172EE8F0A3E4F09004E8E0F89004E7E0A6
:101FF80028F0740212172EAC82AD838518828519D9
:1020080083AA82AB83790112093B9004E8E4F0E5E6
:1020180009A2E092AF74041216F8021B61000000D6
:102028008521878522C622C0E0C0D0E8C0E0E9C08B
:10203800E0EAC0E0EBC0E0ECC0E0EDC0E0EEC0E0FC
:10204800C008C009C00AC00BC082C083C0F0A2AFDC
:10205800E433FEC2AF759B00906182E0A2E05012AB
:10206800E591A2E0500C7591FE7401652170031290
:102078001D2DE0A2E55051E591A2E5504B7591DF89
:102088009003A7E064076005E064087023740165A5
:1020980021703579019003D5E0FA75F003A4CAA838
:1020A800F028FB74D72AFA74033BFB121EDA801857
:1020B800E0640D70139003C9E004F064287002E432
:1020C800F07A00E0F9120DEB906182E0A2E640039D
:1020D800022176E591A2E640030221767591BF9030
:1020E80003A7E064057008120D0D120D1980031284
:1020F8000D13752100120D79E99003A8F0790012EB
:102108000D6D120B457A017B009003A6E0F91210C1
:102118003D907803E064427055900549E014F070F2
:102128004DC2AF12212E00782AD0E0F618D0E0F682
:10213800E59F540770057509FF800375097FC4C0C2
:10214800E07829E6F50808E65509F509740B7808DA
:102158001216C0D0E02508F8906270E0A2E740F8B7
:10216800E8C333906272F0906270E0D2E0F0906160
:1021780081E0A2E35009E5E9A2E3500375E9F7A37A
:10218800E0A2E75009E591A2E7500375917FEEA21E
:10219800E092AFD0F0D083D082D00BD00AD009D053
:1021A80008D0E0FED0E0FDD0E0FCD0E0FBD0E0FAC3
:1021B800D0E0F9D0E0F8D0D0D0E032C0E0C0D0C054
:1021C80082C083906183E0A2E05009E5BFA2E0509D
:1021D8000375BFFEE0A2E15009E5BFA2E150037517
:1021E800BFFDE0A2E25009E5BFA2E2500375BFFBC4
:1021F800E0A2E35009E5BFA2E3500375BFF7E0A2F0
:10220800E45009E5BFA2E4500375BFEFE0A2E55032
:1022180009E5BFA2E5500375BFDFE0A2E65009E576
:10222800BFA2E6500375BFBFD083D0828088C0E0CC
:10223800C0D0E8C0E0E9C0E0EAC0E0EBC0E0ECC034
:10224800E0EDC0E0C0F0E5A7A2E6500FE5A1A2E6E8
:10225800500953A7BF75A1BF12229BE5A7A2E5505D
:102268000CE5A1A2E5500653A7DF75A1DFE5A7A2FB
:10227800E15009E5A1A2E1500375A1FDE5A7A2E29D
:10228800500CE5A1A2E2500653A7FB75A1FBD0F0C4
:102298000221AC74F81217BE7521019003A7E064FF
:1022A800067015120C9B8A828B83A3A3A3A3A3A3F6
:1022B800E0FAA3E0FB120CFBA2AFE433FED2AF902E
:1022C80003ADE0640170187A207B009003A6E0F962
:1022D8001210C77A207B009003A6E0F912104390F1
:1022E8006182E0D2E6F0900546E0602185C6228052
:1022F800169003ACE064017008E5C654F84405F58F
:10230800C653BEFC1220287401652160E4EEA2E0E9
:1023180092AF7F0102186A008E238F248582288558
:102328008327851882851983E0CEA3E0CF8528828C
:10233800852783EBC9EAC8EDCBECCA75F010C3E872
:1023480033C8E933C9EA33CAEB33CBC3EA9EF5266F
:10235800EB9FF525B35004AB25AA26EC33CCED331F
:10236800CDD5F0DAAE23AF242274E91217BE74F883
:102378001216E2851882851983ECF0A3EDF08A081D
:102388008B09120D318508828509831215C49003C3
:10239800A7E024F7C3940550067508010225141216
:1023A8000C9B8A0A8B0BAE0AAF0BEE4F700302250B
:1023B80011AC08AD09740212172EAA82AB83120D54
:1023C8002B8E828F83A3A3750CFF750DFF750EFFEF
:1023D800750F00780C121574740212172E7510FF01
:1023E8007511FF7512FF7513007810121574780CAB
:1023F800791012139A502A780C7910121539750829
:10240800017509C8750A00750B007808790C121354
:102418009A5052850C08850D09850E0A850F0B8088
:10242800507514017515C8751600751700851008C4
:1024380085110985120A85130B7808790C1215394C
:102448007814790812139A401C75080075090075EC
:102458000A00750B01780879101215397808790C7B
:10246800121500800C750801750900750A00750BB6
:1024780000740978081214E1750C19F50DF50EF5BC
:102488000F7808790C1214598E828F83A3A3A3A303
:10249800A3A3E0F8A3E0F97AD07B03121657880CBF
:1024A800890DE4F50EF50F7808790C1215007406FD
:1024B80012172EE0F8A3E0F97AD07B03121657E83A
:1024C800FA8A0CE4F50D7808790C12139A500778FB
:1024D80008790C1215399003A7E06408600AE064D3
:1024E800066005E06405702D750C0D780C790812EE
:1024F800139A4021750CF4750DFF750EFF750FFFCB
:102508007808790C121500800C750800750900759B
:102518000A00750B00851882851983E0F8A3E0F599
:1025280083888278081215A974081216F87F100299
:10253800186A74F71217BE120D43900544E064013F
:102548007010906245E4F0A3F053F4F343FE0C538B
:1025580090F3120CE9E5C654B84441F5C6E59E541B
:1025680047644170F8906185740FF0900542E0F47B
:102578007002A3E0604E900543E0600814601B14ED
:10258800602E8040750801750900900542E07808C2
:102598001216CFE508F45280802A750801750900E3
:1025A800900542E078081216CFE508F4529080149E
:1025B800750801750900900542E078081216CFE504
:1025C80008F452A079007F0202186A74F71217BE45
:1025D800E9FEEAFF120D4374016E700C7A807B00ED
:1025E8009003A6E0F912103D90295CE493F460088A
:1025F800E493F9120B39800953C6B8E59E54477025
:10260800FA120CEF900544E064017003120B51902C
:102618000542E0F47002A3E0604B900543E06008D7
:1026280014601A14602C803D750801750900900526
:1026380042E078081216CFE5084280802875080124
:10264800750900900542E078081216CFE508429017
:102658008013750801750900900542E07808121684
:10266800CFE50842A0120C9B8A088B09A808A90983
:10267800E8496015E5E170FCE82414F582E93400C6
:10268800F583E0F46003E0F5E174016F700A7A0104
:102698009003A6E0F91210970225CE74ED1217BE2A
:1026A8008A088B098C0A8D0B741312172E780C125A
:1026B800159A7808790C12139A7510017511C87556
:1026C800120075130050127808790C121539781019
:1026D800790812139A50168010780C790812153957
:1026E8007810790C12139A40047901800279007FDE
:1026F8000C02186A74ED1217BE8A088B098C0A8DB1
:102708000B741312172E780C12159A780C7908127C
:10271800139A40117808790C121539AA08AB09AC3C
:102728000AAD0B8022751000751100751200751323
:10273800017810790C12153978107908121500AA49
:1027480010AB11AC12AD1380A68A828B837508FF7B
:102758007509FF750AFF750B0078081215877F0445
:1027680002186A74F51217BE8C828D8378081215C8
:102778009A8A828B83780812154DEA2404F8EB3480
:1027880000F98C828D83A3A3A3A3E0FCA3E0FD88BA
:10279800828983C3E09CF0A3E09DF088828983C38B
:1027A800E09420A3E0944E40268A828B837508FF2C
:1027B8007509FF750AFF750BFF78081215268A82BE
:1027C8008B83A3A3A3A3E02420F0A3E0344EF0025C
:1027D800275174F51217BEE9FE9004FCE0FAA3E055
:1027E800FBEEC333F8E433F974E928F582748039D1
:1027F800F583E02AF508A3E03BF509780812196586
:102808007A407B427C0F7D0012232074021216F856
:102818008A088B098C0A8D0B741078081214C8AAC0
:1028280008AB097F0402186A74F11217BE8A0C8B70
:102838000D8C0E8D0F740F12172EE0FAA3E0FB74A7
:102848001112172EE0F508A3E0F5097808121965AA
:10285800EA2401F508EB3400F509E4F50AF50B78EC
:102868000C79081213D9750871750902780C790862
:102878001213D9AA0CAB0DAC0EAD0F1223207402A3
:102888001216F88B09EA450960047A0180027A0079
:10289800EC2AFCED3400FD741312172EE0F8A3E0C7
:1028A800F9E8FEE9FFECF8EDF97A717B02121657A8
:1028B800880889098E828F8378081215A9ECF8EDAB
:1028C800F97A717B021216578A088B097405780801
:1028D8001216CF8E828F83A3A3A3A3E508F0A3E5E6
:1028E80009F07F0802186AC082C083E9906000F08E
:1028F800D083D08222C2AF02000022C0E074F2125C
:1029080018AAA2AFE433FED2AFE589A2E04006E5FB
:1029180089A2E15003121211758900758900C2C598
:10292800751A00EEA2E092AF7F01021909C0E0C05B
:10293800D0E8C0E0E9C0E0E5A8D2AFC2C7751A0088
:10294800A2E7A2E792AFD0E0F9D0E0F8D0D0D0E08B
:1029580032020132FFFFFFFFFFFFFFFFC082C0838B
:10296800E9900A43F0022BF374F7121752E9900228
:10297800E7F07C1F7D037AFF7BFF1208819002E855
:1029880074FFF0A3F0A3E4F0A3F07905120809900E
:1029980002E7E0F912072B7A9F7B08120A497F01A8
:1029A80002182474F41217528A088B09EB548060B9
:1029B800309002E7E0F91210258A0A8B0BAE0AAFB5
:1029C8000BEE4F60138E828F83E064B070031208A1
:1029D80021EEFAEFFB121013AA08E5096480FB80C8
:1029E800047A007B00022BC274F212175274FC1294
:1029F80016E2EAFEEBFFEE4F6038740212172EEE75
:102A0800F0A3EF122E27ECF0A3ED122E27AA82AB2B
:102A180083120725E9F5087073741212172E1239FC
:102A2800DBE50A450B60658E828F83122A9EEE4F86
:102A3800700575080280557A067B0012107F8A0C93
:102A48008B0DA80CA90DE8497005750813803D8801
:102A5800828983E4122AA8A3A3EEF0A3EF123E749E
:102A6800E50AF0A3E50BF09002ED122B309002ED91
:102A78006017E0FCA3E08003EAFCEBFD8C828D8309
:102A8800122B3070F38C828D83123900A9087404DC
:102A98001216F8024076A3A3A3A3E0FEA3E0FF2248
:102AA800F0A3F0888289832274F2121752890AE906
:102AB80075F017A4FEAFF09002ECE4F09002EA1271
:102AC8002B30600A1210859002EAE4F0A3F0EEFAC7
:102AD800EFFB12107F8A088B09EA4509602FEEFC8C
:102AE800EFFD79001210019002EAE508F0A3E5096C
:102AF800F07B008008122B1AE4F0A3F00BEBC395CF
:102B08000A40F2E50A9002ECF0790080027913029B
:102B18004076EB75F017A4F8A9F09002EAE028FADD
:102B2800A3E0398A82F58322123696EA4B2274F49E
:102B3800121752750800750900740C12172E123EF0
:102B480048FEE9FF800CE5082401F508E509340092
:102B5800F509C3E5089CE5099D503285080A8509F1
:102B68000B7403780A1216CFEA250AF8EB350BF92D
:102B780088828983A3A3A3A3A3A31239DBEE650AE2
:102B88007003EF650B70BFE8FAE9FB80047A007BFD
:102B980000802774F41217527900EAA2E0501B75DE
:102BA800084A75098178081219657C047D007A4500
:102BB8007B0A12080374021216F87F04021824C054
:102BC80082C0839002ED122BFA601C88828983A34D
:102BD800A3E06A7003A3E06B8882898370E8A3A3EB
:102BE800A3A312369280047A007B00D083D082029D
:102BF8000132124149E8492274EE12175274FC124C
:102C080016E2EAFEEBFF851882851983E4F0A3F04B
:102C1800EE24021238E4EE2405122E15EE2404F5F3
:102C28000EEF1231FAE024FE603924FC604624FEDF
:102C3800605224FE605E24FE7003022D1A24FE708A
:102C480003022D9224FE7003022DA124FE700302BC
:102C58002DB024FC7003022DBF24FE7003022DCE7C
:102C6800022E0B9003067417F0A3E4122E2F120401
:102C7800A3022E0B851882851983AC82AD831208B6
:102C880027022DDB851882851983AC82AD83120853
:102C98002D022DDB850C08850D09740212172EAC48
:102CA80082AD838508828509831236921207498A84
:102CB8000C8B0DAC0CAD0DEC4D6042E4F50CF50D34
:102CC800780C121965750C06750D03780C121965C8
:102CD800750C07750D03780C121965740812172EF8
:102CE80012197C791612368C12086974081216F8B3
:102CF800E9F50C700B1236881204BB800F750C01B5
:102D0800850882850983122E1D123900850C080258
:102D18002DDE740212172EAC82AD83850C82850DD0
:102D2800831236921207498A108B11AC10AD11EC40
:102D38004D6043850C82850D83A3A312197C751001
:102D48000675110378101219657510077511037847
:102D580010121965740812172E12197C791612367A
:102D68008C12086974081216F8E9F509700B123606
:102D7800881204C1800F750901850C82850D8312A4
:102D88002E1D123900850908804C85188285198303
:102D9800AC82AD83120833803A851882851983ACDA
:102DA80082AD83120839802B851882851983AC82FD
:102DB800AD8312083F801C851882851983AC82ADCB
:102DC80083120845800D851882851983AC82AD83EE
:102DD80012084BE9F508E50860298E828F83A3E085
:102DE8006414601F850E82850F83E0900306122EFF
:102DF80027124145900307123900E508A3122E2F28
:102E080012049DEEFAEFFB1207C70237ECF50CEF40
:102E18003400F50D2212414985188285198322F064
:102E280085188285198322F07C067D03850A8285B0
:102E38000B831236962274EE12175274FC1216E2A5
:102E48008A0A8B0B8C0E8D0FEA2405F508EB3400EB
:102E5800F5097C157D0079007A067B03121001E5DF
:102E6800082402F50CE509122E18851882851983A5
:102E78008582108583117810121965850882850965
:102E880083A3A3A3A3123342121965E5082405F509
:102E980010E5093400F5117810121965850C828542
:102EA8000D8312369C12074374061216F88A108B8B
:102EB80011AE10AF11E50A2402F50AE50B1238E746
:102EC800EE4F70030230048017740212172E123668
:102ED8009288828983EAF0A3EBF0900306E004F07D
:102EE800900306E0C394054003023004E4F510F5AE
:102EF8001178101219657510EF75110278101219F2
:102F0800657510F07511027810121965740612179C
:102F18002E12197C7910EEFCEFFD12368C1208691E
:102F280074081216F8E9705E850882850983A3A3E0
:102F3800A3A3A3A3A3E0F89002EFE06870481233BC
:102F4800421219657CF07D02E5082408FAE5093487
:102F580000FB120FFB74021216F8E960298E828FAB
:102F680083A3A3A3A3123692900306E0F51074027C
:102F780078101216CF74072510F58274033511F5F1
:102F880083EAF0A3EBF0740212172E858210858372
:102F9800117810121965740212172E12197C850CFB
:102FA80082850D8312415A12074F74041216F88A4B
:102FB800108B11AE10AF11900306E0F510751100DB
:102FC800740278101216CF74062510F874033511A0
:102FD800F988828983A3122B307003022EC8E82453
:102FE80003F8E93400F9EE4F6003022ED188828994
:102FF8008374FFF0A3F0900306E004F0900306E06A
:10300800600A1236881204AF7900800B8508828521
:1030180009831238F7790A0237EC74EA12175274E6
:10302800FE1216E28C128D13EA2405F50CEB1242FF
:10303800C4122AA2750800750900EA2402F510EBEB
:103048003400F51185188285198385820A85830BDA
:10305800780A121965850C82850D83A3A3A3A31290
:103068003204121965E50C2405F50AE50D1238E756
:10307800780A121965850C82850D8312415812074A
:103088004374061216F88A0A8B0BEA450B70030282
:1030980031B5EA2404F50EEB1231FA122AA28A821B
:1030A8008B83A3A3A3E0F98510828511831236923E
:1030B800120731E9F50960030231B5E4F514F51595
:1030C80078141219657514EF7515027814121965BC
:1030D8007514F07515027814121965740612172EF6
:1030E80012197C7913AC0AAD0B85108285118312F5
:1030F800369212086974081216F8E9F50960030295
:1031080031B59002EFE0F8E5087009E02402900379
:1031180007F08017900307E0FCE82402FAE4340083
:10312800FBEA6C7001EB60030231B9850882AA8260
:1031380012333994141233315073850E82850F83FC
:10314800E0C0E074082A1231F1D0E0F00508850EDD
:1031580082850F83A3E0C0E085080A7408250A1257
:1031680031F1D0E0F005089002EF1232041219652F
:103178007CF07D0285080A7408250AFA7403340075
:10318800FB120FE974021216F89002EFE02508F519
:103198000874FF6E700374FF6F6012EE24010EEF67
:1031A8003400FFE508C39414500302304CE508606E
:1031B8001312357D8510828511831236921204B55B
:1031C80079008014E509700375090A851282851350
:1031D80083EEF0A3EFF0A90974021216F87F0E022D
:1031E800182485080C7408250CF58274033400F53E
:1031F80083223400F50F850E82F58322123E872242
:1032080074EE12175274FE1216E28C0E8D0FEA2419
:1032180005F50CEB122E18750B00900306E4F0F57B
:103228000AEA2402F508EB3400F509804990030600
:10323800E0FA9002EFE0F812333994171233314074
:103248000D900306E0F87416C3989002EFF012335D
:10325800421219657CF07D0274072AFA740334005F
:10326800FB120FE974021216F89002EFE0F89003CF
:1032780006E028F0050AE50C2416F582E50D123162
:10328800F5E0F8E50AC398400302331A900306E014
:10329800C39416507DE50AC333F8E433F9E50C28E6
:1032A800FEE50D39FF851882851983AC82AD838EC2
:1032B800828F831236921207498A108B11AC10AD97
:1032C80011EC4D7005750B018043E4F510F511788C
:1032D800101219657510EF751102781012196575BD
:1032E80010F07511027810121965740612172E1253
:1032F800197C791685088285098312369212086925
:1033080074081216F8E9F50B70030232351238F317
:1033180080107C067D038508828509831236921207
:1033280004C7A90B74020237EEE99400C365D033D1
:1033380022EA28F8E43400F9E822E0F510751100D3
:1033480078102274EA12175274FC1216E28A0C8B57
:103358000D8C128D13EA2405F50AEB1238E775086F
:1033680000750900E50A2402F510E50B3400F51193
:10337800740212172E85820E85830F780E12196536
:10338800850A82850B83A3A3A3A3123E3312196572
:10339800E50A2405F50EE50B3400F50F780E121931
:1033A800658510828511831238ED12368C12074319
:1033B80074061216F88A0E8B0FAE0EAF0FE50C24AA
:1033C80002F50EE50D3400F50F804088828983747C
:1033D800FFF005081231EA74FFF005089002EFE0EB
:1033E800F50C750D00780C1219657CF07D028508C6
:1033F8000C7408250CFA74033400FB120FE97402EC
:103408001216F89002EFE02508F508EE4F60718E6D
:10341800828F83A3A3A3E0F9850E82850F831236DA
:1034280092120731E9F509EE2404122E15E97044C9
:10343800E4F514F51578141219657514EF7515026D
:1034480078141219657514F0751502781412196537
:10345800740812172E12197C7911EEFCEFFD850EF7
:1034680082850F8312369212086974081216F8E9D9
:10347800F5096027850C82850D8312357312390092
:10348800E508700302355912357D850E82850F8354
:103498001236921204CD790002356E850882AA820E
:1034A800EA9002EF7009E02404900307F08022E01C
:1034B800F8900307E0F514E82404FCE43400FDEC7C
:1034C80065147001ED70C012333994121233315003
:1034D800B6850C82850D83E0C0E074082A1231F1AC
:1034E800D0E0F00508850C82850D83A3E0C0E012CA
:1034F80031EAD0E012358F85820C85830D780C1265
:103508001965740412172E12197C8510828511838F
:1035180012415A12074F74041216F88A0C8B0DAE1A
:103528000CAF0D85080C7408250CF874033400F9E9
:10353800EE4F70030233D3851882851983E08882A1
:10354800898312358FA3E0C0E01231EAD0E002335C
:10355800E1E509700375090A850A82850B8312352E
:1035680073123900A90974040231E2124149851223
:103578008285138322900307E0F5F0E50884900321
:1035880006F07C067D0322F00508851882851983DC
:103598002274EC12175274FE1216E28A088B098CF8
:1035A8000E8D0FEA2405FEEB3400FF85188285197D
:1035B80083AC82AD838E828F831236921207498A3A
:1035C8000A8B0BEE2418122E15EA450B70030236EF
:1035D800631237D5503285188285198312369212B4
:1035E800085D8A108B11EA4511606B7912AC0AAD3F
:1035F8000B8508828509831236928510828511838E
:10360800121750E9F50A7058E4F50AF50B780A1212
:1036180019658E828F83A3A3E0F50A780A121965CB
:10362800EE24031238E4780A1219658E828F831209
:10363800369C12086F74061216F8E9F50A7021858F
:103648000C82850D83E0701F8508828509831236F8
:10365800921204D38011750A0E8009750A0180043C
:10366800E50A60031238F3850C82850D83E0600457
:1036780079008002A90A74021216F87F0C02182435
:103688007C067D03850A82850B8312369622E0FA32
:10369800A3E0FB22E0FCA3E0FD85088285098312F4
:1036A80036962274EE12175274FE1216E28A088BAE
:1036B800098C0C8D0DEA2405FEEB3400FF750E0015
:1036C800851882851983AC82AD838E828F831236EA
:1036D800921207498A0A8B0BEA450B70030237C11D
:1036E8001237D550358518828519831236921208FB
:1036F8005D8A0E8B0FEA450F605E7912AC0AAD0B3E
:10370800850882850983123692850E82850F831279
:103718001750E9F50E60030237C4850882850983CE
:103728001239DBAA0AFB1208518A108B11A810A9BA
:1037380011E849701E7AFF7BFF1208518A108B111D
:10374800A810A911E849606C88828983E50AF0A36A
:10375800E50BF0750A008007750E0E805F050A906C
:1037680002ECE0FAE50AC39A504AE50A75F017A494
:10377800FAABF088828983A3A3E02AFAA3E03BFB93
:103788008A828B831238EDEC4D70D2750A17750B4F
:1037980000780A121965EEFCEFFD120FE9740212A7
:1037A80016F8EEFCEFFD8508828509831236921221
:1037B80004D98014750E098003750E0112414185E4
:1037C8000C82850D83123900A90E02332CE50824DA
:1037D80002F508E5093400F5098A828B83A3A3A3BF
:1037E800E0A2E52274041216F87F0A02182474EC89
:1037F8001217528C108D11EA2405F50CEB122E18B5
:10380800750F00EA2402F50AEB1238E7850A82F5FB
:10381800831236921208518A088B09EA4509700307
:103828000238D9750E008071850C82850D83E0649D
:1038380001704F8E828F83A3A312197C8E828F838F
:10384800A3A3A3A3E0F5127513007812121965EE6D
:103858002405F512EF3400F51378121219651236A3
:103868008C12086F74061216F8E9F50F6014850CAF
:1038780082850D83E4F012414185108285118312FF
:1038880039007C177D007900EEFAEFFB1210018EEB
:10389800828F83E4F0A3F0050E9002ECE0F8E50EC9
:1038A800C398501EE50E75F017A4F8A9F085088294
:1038B800850983A3A31242CE1238EDEC4D600302B2
:1038C800383085088285098374FFF0A3F0E50F700E
:1038D8000612368C1204DFA90F023683F50AEF347C
:1038E80000F50B22A3E0FCA3E0FD228E828F831259
:1038F8004149850E82850F83E8F0A3E9F022C08252
:10390800C0839002E8E06A7003A3E06B70067AE86F
:103918007B0280047A007B00022BF3C082C083788C
:10392800008C828D83E06A7003A3E06B7010E875E9
:10393800F003A4F8A9F0EC28FAED39FB8015088CFF
:10394800828D83A3A3A3E06A7003A3E06B60DF7A90
:10395800007B00022BF374F612175212081B8A829E
:103968008B83E582458370067A007B008007A3A3DA
:10397800A3A3123692023FF274F2121752E9FE74B0
:103988000E12172E1239DB741012172E123E538C9A
:10399800828D83E064027036A312414FF50CA3E0D8
:1039A800F9A80C74026870037429697021750C02F7
:1039B800750D00780C1219657808121965780A12C5
:1039C8001965EEF912089374061216F88002790147
:1039D800024076E0F50AA3E0F50B2274E8121752CC
:1039E80074FB1216E2E9851882851983F08A168B12
:1039F80017ECFEEDFF751000741D12172E124145CD
:103A0800741D12172E1239008E828F83A3A3A3E090
:103A1800A2E4502D741D12172E12369212085D8AD8
:103A2800828B83E58245837003023E24790AEEFC8B
:103A3800EFFDAA16AB17121750E9F5106003023E06
:103A480027741F12172E123E53742112172E123983
:103A5800DB742312172EE0F50EA3E0F50F8E828F8C
:103A680083E064026003023DD2A3124145850882C7
:103A7800850983A3858212858313EE2406122E15E9
:103A880088828983E0FAA3E0F9EA2400F514E4398E
:103A9800F51578141219EF010000280128C73A0714
:103AA8000002288C3B0328F93A0029C33C0129EE7F
:103AB8003C02298F3C0329C33C04296D3DD23DE5D6
:103AC8000E450F6003023DCD850C82850D83123EA5
:103AD80048FAE9FB8A828B83E0850A82850B831288
:103AE8003E7E1219658A828B83A3E0FCA3E0023D27
:103AF80057E50E450F6003023DCD850A82850B838D
:103B08007401F0123E5B850882850983F07C007D94
:103B1800008E828F83A3A3A3A3E02401FAA3E03439
:103B280000FB120749EA4B60418A828B83E024023A
:103B3800F8850A82850B83E028F0EA2404F8EB3440
:103B480000F988828983E0851282851383123E906A
:103B5800123E7E1219658A828B831238ECE508249E
:103B680003FAE5093400FB023D5C850A82850B8374
:103B7800E02404F07C047D007900AA12AB13121033
:103B880001023E27E50E450F6003023DCD123E5B64
:103B9800FEA3E0FF850A82850B837404F0EE850896
:103BA80082850983F0EF851282851383F0740312EE
:103BB800172EAC82AD83EEFAEFFB1207498A0C8B05
:103BC8000DEA450D7003023C708A828B83A3A31211
:103BD8002A9E740112172E85820E85830F780E1285
:103BE8001965740512172E12197C7CFF7DFF1207C8
:103BF8004F74041216F88B0FEA450F7033850C8248
:103C0800850D83123E33121965850C82850D83A3B9
:103C180012197C7C027D007AAA7B8112057B7404D0
:103C28001216F8E9700A740112172E74FFF0A3F047
:103C38008E828F83E064027039750C02750D0078EE
:103C48000C1219658E828F831238ECE5082404FA69
:103C5800E5093400FB120FE974021216F8850A828E
:103C6800850B83E024028009740112172EEEF0A35D
:103C7800EFF0740112172E123E44F0740112172E41
:103C8800A3123E3C023DC7E50E450F6003023DCD41
:103C9800850C82850D831238EDAA16AB171208879A
:103CA800850A82850B837402F0EA85088285098378
:103CB800F0851282851383EB023DCAE50E450F603D
:103CC80003023DCD123E5BF8A3E0F9850A82850B1D
:103CD800837402F0E8850882850983F0E9851282F9
:103CE800851383023DCA850C82850D831236921294
:103CF8000FE3EAFC8C82A882C3950EE4950F405F1F
:103D0800E8650E7002E50F70047C00802285188239
:103D1800851983E0FAE50E2AFAE50F3400FBC3EAB9
:103D280098EB94005003E08005E50ECCC39CFCECB6
:103D3800850A82850B83F08C0A750B00780A1219A4
:103D480065850C82850D83E0250EFCA3E0350FFD0B
:103D5800AA08AB09120FE974021216F8023E277579
:103D68001007023E27E50E450F705A850C82850D17
:103D780083124145850A82850B837407122AAA1289
:103D88003E3C122AAAA3E0851282851383F0E82418
:103D980002FAE93400FB8A828B83123E3C123E6BA6
:103DA800123E44A3123E74123E4DF0E82405F8E991
:103DB8003400F988828983123E4DA3123E90A3A352
:103DC800A3A3F0805A75100B8055741D12172E127C
:103DD800369212081B8A828B83E5824583603D12E6
:103DE8004145880C890DE8450D6031780E1219653A
:103DF800780A1219657808121965740612172EE0E8
:103E0800F9EEFCEFFDAA16AB17850C82850D83121F
:103E1800175074061216F8E9F510800375100EA9EC
:103E28001074051216F87F10021824E0F50E750FAD
:103E380000780E22E085088285098322123E9A22A4
:103E4800124149E822123E9AA3A322E0F508A3E012
:103E5800F50922850C82850D83E0F8A3E0F58388B7
:103E680082E022A3A3F08A828B83A322F08882892E
:103E780083A3A3A3A322F08A828B83123E8722E026
:103E8800F50A750B00780A22F088828983A3123E0E
:103E98009A22E0850882850983A3A32274EE12176B
:103EA8005274FE1216E28A0A8B0BECFAEDFB7414BC
:103EB80012172EE0F510A3E0F511741612172EE074
:103EC800FE741812172EE0F50EA3E0F50F85188280
:103ED800851983AC82AD831207498A0C8B0DEA459C
:103EE8000D604985188285198312369212081B8A3B
:103EF800828B83E5824583602FA3A3123E53E50896
:103F080045096024780E1219657810121965EEF9C2
:103F1800AC0CAD0DAA0AAB0B850882850983121774
:103F28005074041216F88006790E80027901023363
:103F38002C74F612175274FE1216E2740C12172E15
:103F4800123E48851882851983F0740112172EE9EC
:103F5800F0E4F508F509780812196575080278087B
:103F6800121965740412172E85820885830978084A
:103F780012196512086F74061216F874021216F8F0
:103F8800806874F7121752EAFEEBFF89087C1F7DE0
:103F980003120887EA5402600BA908EEFAEFFB1235
:103FA800073D800279010229A674F612175274FFA0
:103FB8006A700374FF6B70168C828D83123FF7E46E
:103FC800F08C828D83A3A3A3123FF7A38018120855
:103FD800578A088B09A808A909E849600D888289C9
:103FE8008374FF122AA8A3A3E4F07F0202182474A2
:103FF800FFF0A3F08C828D83A3A32274F6121752CC
:104008001208578A828B83E58245836006A3A3E062
:10401800FA80027A007B0080D174F21217528A0863
:104028008B09ECFEEDFF740E12172EE0F50A12084C
:10403800578A0C8B0DA80CA90DE8497026EEFCEFE9
:10404800FD7AFF7BFF1208578A0C8B0DA80CA90D6F
:10405800E84970047911801688828983E508F0A3FD
:10406800E509F088828983A3A3E50AF079007F0631
:1040780002182474EE121752EAFEEBFF8C088D0921
:10408800890C741412172E124145741612172E1229
:104098003692750D00E84960030241397402650CD7
:1040A8006003024134741212172E12414FFCA3E030
:1040B800F9EC2400F50EE439F50FEAF4F8EBF4F91D
:1040C800EC58F8E50F59F9E849705CE5082406F85A
:1040D800ED3400F9880A890B8882F58312415A1257
:1040E80008878A108B11E50E65107004E50F6511BD
:1040F8006042780E121965850A82850B8312415A2F
:1041080012088D74021216F8E9F50D7027780E1250
:104118001965850882850983A3A31241581208A549
:1041280074021216F8800D750D808008750D0D80CB
:1041380003750D0BA90D0237F18E828F8312414949
:1041480022E0F8A3E0F92212414988828983E0221B
:10415800A3A3E0FCA3E0FDEEFAEFFB2274E812173C
:104168005274E71216E2851882851983EAF0A3EBE8
:10417800F08C168D17890E750800750900743112B8
:10418800172EE0F512A3E0F513743312172EE0F59D
:1041980014A3E0F515743512172EE0F50FE509752F
:1041A800F003A4F8A9F08518828519831242CEE09D
:1041B800F47003A3E0F470030242B1EE2402F50C9C
:1041C800EF1242C4E070030242B185160A85170B4C
:1041D800780A121965AC14AD15AA12AB1312080FA0
:1041E80074021216F88A0A8B0BEA450B7003024216
:1041F800B1E4F510F5117810121965740612172E2E
:104208008582108583117810121965740912172E8A
:10421800858210858311781012196585128285139D
:1042280083A3A3A3A312197C7914AC0AAD0B8E82C5
:104238008F8312369212086974081216F8E97069A9
:10424800850A82850B83A3A3A3A312414574021296
:10425800172E123900850C82850D83E0A2E05018D4
:10426800A90E740212172EAC82AD838E828F831230
:104278003692120761E94208850C82850D83E0A217
:10428800E15026E50FF50A780A121969A90E740398
:1042980012172EAC82AD838E828F8312369212074C
:1042A8005B74011216F8E942080509E509C394028E
:1042B80050030241A5A9087419023E2B3400F50DDC
:1042C800850C82F58322E028FEA3E039FF8E828FD9
:1042D800832274F2121752EAFEEBFF890B74016510
:1042E8000B600E7402650B706A7901120A67E97037
:1042F80062EEFAEFFB1208518A088B09EA45096059
:1043080047750A00800B7C177D00790012100105A3
:104318000A9002ECE0F8E50AC3985021E50A75F026
:1043280017A4F8A9F0850882850983A3A3E028FAD1
:10433800A3E039FB8A828B83122BFA70C985088225
:1043480085098374FFF0A3F07C1F7D03EEFAEFFB71
:1043580012088102407674F21217528A088B09EC0F
:10436800FEEDFF740E12172E1239DB900A43E0F4AB
:10437800603D7A097B0012100DEA4B60328A828B0D
:104388008374B1F0A3E4123E6DA3123E6BA3E5085B
:10439800F0A3E5091243BAEEF0A3EF1243BAA3A3C0
:1043A800E50AF0A3E50BF0900A43E0F912101902B0
:1043B8004076F08A828B83A3A3A3A3A322C082C0E2
:1043C800839061907404F0A37448F0A37402F09091
:1043D80061807440F09061BC7403F0906187741937
:1043E800F0906265741BF0906249E0C39413906189
:1043F8009C40107409F09060667401F090619F749D
:1044080028800D740BF0906066E4F090619F742C26
:10441800F090619A7433F0A37455F09061A0743AE7
:10442800F0900544E064017009C2919003AB746791
:1044380080059003AB7461F0902962E493906186E3
:10444800F090295CE493F46027E493540FF89061AA
:1044580085E0686012E5C654B84441F5C6E59E5447
:1044680047644170F8E8F053C6B8E59E544770FABF
:104478007905120DCD02462CC082C083E9540FF98C
:10448800906185E0696012E5C654B84441F5C6E517
:104498009E5447644170F8E9F053C6B8E59E544706
:1044A80070FA02462CC082C083E5A8F853A87E9013
:1044B8006181E4F0A3F0A3F0C2BA539AFEC28975F1
:1044C8009B00C2C275E90075910075BF0075A911FE
:1044D80075B905906181F0A374C0F0A3E4F0D2BA75
:1044E800439A0174805842A802462CC082C0837443
:1044F800F81216E29003A9E0F8A3E0F9E84970037E
:104508000246219003A9E054406023790885188267
:10451800851983AA82AB83120C2985188285198391
:10452800AA82AB831209179003A9E054BFF0E054A4
:10453800806010790C7A6A7B05120C299003A9E037
:10454800547FF0E0A2E0503190619A7433F0A37484
:1045580055F09061A0743AF0900544E06401700948
:10456800C2919003AB746780059003AB7461F0123D
:10457800091D9003A9E054FEF0E0540260319061F7
:104588009A743FF0A3745AF09061A0747FF090057C
:1045980044E064017009D2919003AB747180059076
:1045A80003AB746AF012091D9003A9E054FDF0E012
:1045B80054046013902960E493906186F0120923F3
:1045C8009003A9E054FBF0E054086013902961E4DB
:1045D80093906186F01209239003A9E054F7F0E064
:1045E80054106013902962E493906186F0120923B5
:1045F8009003A9E054EFF0E05420600A12092390D8
:1046080003A9E054DFF0A3E05401600D120B51122E
:1046180009299003AAE054FEF074081216F802461D
:104628002CF0A3F0D083D08202013274EC1217521E
:1046380074F41216E2851882851983AC82AD8375ED
:10464800838175828774041215F590296093F4604C
:10465800030247BF907808E0C39402500302479FC3
:10466800740412172EAC82AD8375838175822A7407
:10467800081215F58518828519838582128583139A
:10468800740412172EAC82AD83750EFF750FFF7F71
:10469800FF7E00750C48750D78801574086E7003E0
:1046A80002473374096E7003024733740A6E607BE5
:1046B800850C82850D83780812159A8C828D83A9C2
:1046C80009E50AC9F88810741878081214C8E510A2
:1046D8004508F8C3E098A3E099850C82850D837896
:1046E8000812159A40188C828D8374187808121451
:1046F800C8E5104508F8E0C398F8A3E0801C7418D2
:1047080078081214C8E5104508FAE9FB8C828D83F5
:10471800E0F8A3E0F9EAC398F8EB99F9C3E8950E35
:10472800E9950F5006880E890FEEFF0EE50C24045C
:10473800F50CE50D3400F50DEEC394135003024655
:10474800A374FF650E700474FF650F60238F0874EF
:104758000278081216CF74482508F582747835094E
:10476800F583780812159A851282851383E508F077
:10477800EC2402FCED3400FD851282851383A385A9
:104788008212858313740C12172EE5826C7003E570
:10479800836D600302469175080175090078081257
:1047A8001965740212172EAC82AD837A587B0A12EF
:1047B80011ED74021216F8740C1216F87F0C021818
:1047C80024C082C0839061AE7468F0A3746AF090CC
:1047D800624574FBF0A304F053F4FD43FE02900518
:1047E800447401F09061A0E0643A90619A70237477
:1047F80033F0A37455F09061A0743AF07401640129
:104808007009C2919003AB746780289003AB746100
:104818008021743FF0A3745AF09061A0747FF07403
:104828000164017009D2919003AB74718005900303
:10483800AB746A02462B7F08021824C082C083909A
:1048480004F6E06401700A9004FBE06004790C80CF
:1048580002790002462CC082C08375E1F19004F908
:10486800E0605B14600914605F14605714705E1296
:104878000B639004EFE0F97AF07B04120D4F7AD6BF
:104888007BBE7C897D8E120D857A557B557C557D46
:1048980000120D5B9004FAE0F9120D677901120D10
:1048A800C19004EDE0F8A3E0C82416F582E83400CE
:1048B800F583747BF0A3740BF0790002462C120B7D
:1048C8006980AF120B6F80AA120B7580A5791280D0
:1048D800EA74F012175275D90D9004DAE0A2E0E4F8
:1048E800331313F89004EFE0C4333354C048440141
:1048F800F5D978ED790488828983A3A3A3E0F5D953
:1049080088828983A3A882A983E864F37003E96491
:104918000470E378DA790488828983A3E0F5D9887A
:10492800828983A3A882A983E864E07003E9640408
:1049380070E575E1959004DAE0F97ADB7B04120DF5
:1049480055900A65740FF0A3740BF0A37471F0A36B
:10495800740CF0A37471F0A3740CF0A37471F0A339
:10496800740CF0A37415F0A3740BF0A37471F0A386
:10497800740CF0A3742DF0A3740BF0900A73747187
:10498800F0A3740CF0A37471F0A3740CF0A3747109
:10499800F0A3740CF0A37471F0A3740CF0A37471F9
:1049A800F0A3740CF0A37471F0A3740CF09004F9E4
:1049B800E064019004ED7012E0F8A3E0F5838882CA
:1049C800A3A37508007509088010E0F8A3E0F58333
:1049D8008882A3A3750804750900750A00750B0081
:1049E8007808121513750CFF750DFF750EFF750FFE
:1049F800007808790C1215619004EDE0F8A3E0C87E
:104A0800240EF582E83400F58378081215A990047D
:104A1800EDE0F8A3E0C82414F582E83400F58374C7
:104A280013F09003A77402F002483E74F71217526D
:104A38009004FFE02407F5D99004EFE0C433335421
:104A4800C0F5D978ED790488828983A3A3A3E0F51A
:104A5800D988828983A3A882A983E864F37003E9CB
:104A6800640470E39004FFE0601F78ED7904FAE8CD
:104A78002413F582E93400F583E0F5D98882898327
:104A8800A3A882A9831AEA70E690051FE02407F517
:104A9800D99004EFE0C4333354C04404F5D978ED19
:104AA800790488828983A3A3A3E0F5D988828983BE
:104AB800A3A882A983E864F37003E9640470E3900F
:104AC800051FE0601F78ED7904FAE82433F582E9E0
:104AD8003400F583E0F5D988828983A3A882A98365
:104AE8001AEA70E675E195900A65741BF0A3740BD9
:104AF800F0A37471F0A3740CF0A37471F0A3740C98
:104B0800F0A37471F0A3740CF0A37415F0A3740BE4
:104B1800F0A37471F0A3740CF0A3742DF0A3740BBC
:104B2800F0900A737471F0A3740CF0A37471F0A37D
:104B3800740CF0A37471F0A3740CF0A37471F0A357
:104B4800740CF0A37471F0A3740CF0A37471F0A347
:104B5800740CF09004EDE0F8A3E0C8240EF582E8A8
:104B68003400F58374FFF0A3F0A3F0A3F09004EDF4
:104B7800E0F8A3E0C82414F582E83400F583741241
:104B8800F09003A77401F0FF02182474F71217526B
:104B98009004FFE02407F5D99004EFE0C4333354C0
:104BA800C04402F5D978ED790488828983A3A3A348
:104BB800E0F5D988828983A3A882A983E864F37081
:104BC80003E9640470E39004FFE0601F78ED790462
:104BD800FAE82413F582E93400F583E0F5D98882F0
:104BE8008983A3A882A9831AEA70E675E195900AD9
:104BF800657427F0A3740BF0A37427F0A3740BF06B
:104C0800A37427F0A3740BF0A37427F0A3740BF01C
:104C1800A37427F0A3740BF0A37427F0A3740BF00C
:104C2800A3742DF0A3740BF0900A737471F0A3743D
:104C38000CF0A37471F0A3740CF0A37471F0A37456
:104C48000CF0A37471F0A3740CF0A37471F0A37446
:104C58000CF0A37471F0A3740CF09004EDE0F8A3C9
:104C6800E0C8240EF582E83400F58374FFF0A3F061
:104C7800A3F0A3F09004EDE0F8A3E0C82414F582B3
:104C8800E83400F5837414F09003A77404F0024F1D
:104C98005A74F71217529004FFE02407F5D99004CC
:104CA800EFE0C4333354C04406F5D978ED7904886D
:104CB800828983A3A3A3E0F5D988828983A3A882E4
:104CC800A983E864F37003E9640470E39004FFE0E7
:104CD800601F78ED7904FAE82413F582E93400F5C9
:104CE80083E0F5D988828983A3A882A9831AEA7008
:104CF800E690051FE02407F5D99004EFE0C43333AC
:104D080054C04404F5D978ED790488828983A3A333
:104D1800A3E0F5D988828983A3A882A983E864F3EC
:104D28007003E9640470E390051FE0601F78ED7973
:104D380004FAE82433F582E93400F583E0F5D988EC
:104D4800828983A3A882A9831AEA70E675E19590FF
:104D58000A657421F0A3740BF0A37471F0A3740CAA
:104D6800F0A37471F0A3740CF0A37471F0A3740C25
:104D7800F0A37471F0A3740CF0A37471F0A3740C15
:104D8800F0A3742DF0A3740BF0900A737471F0A360
:104D9800740CF0A37471F0A3740CF0A37471F0A3F5
:104DA800740CF0A37471F0A3740CF0A37471F0A3E5
:104DB800740CF0A37471F0A3740CF09004EDE0F897
:104DC800A3E0C8240EF582E83400F58374FFF0A34D
:104DD800F0A3F0A3F09004EDE0F8A3E0C82414F5E4
:104DE80082E83400F5837415F09003A77403F00289
:104DF8004F5AC082C0839004EDE0F8A3E0C82406AF
:104E0800F582E83400F583E402462974F712175254
:104E18009003D5E0F875F003A4C8AAF02AF974D76E
:104E280028F8740339F9E82405FAE93400FB8A8282
:104E38008B83E0FCA3E0FD88828983A3A3A3A3A3BB
:104E4800A3A3A3A3ECF0A3EDF088828983A3A3A373
:104E5800A3A3A3A3E024FFF8A3E034FFF98A828B7D
:104E680083E8F0A3E9F0024F5A74F7121752EAFEEA
:104E7800EBFF9061D0E06003024F4E75D90E75D9F3
:104E88000375D904EE248BF582EF3400F583E582AF
:104E98002408F8E5833400F9E0F5D9A3E8658270C1
:104EA80003E9658370F2EE2483F582EF3400F5831D
:104EB800E5822404F8E5833400F9E0F5D9A3E86530
:104EC800827003E9658370F275E1957908EE248BA9
:104ED800FAEF3400FB120C1D7904EE2483FAEF3448
:104EE80000FB120C1D7C00EEF8EFF9ECFAC3E49A13
:104EF800FA95E0FBEE2AFAEF3BFBEA248AF582EB0F
:104F08003400F583E0C0E0E824AAF582E93400F52E
:104F180083D0E0F00C88828983A3A882A983ECC39C
:104F2800940840C7EE246FF582EF3400F583E0F86B
:104F3800A3E0F9EE2471F582EF3400F583E8F0A3DD
:104F4800E9F07901800279008008F0EEA2E092AFE2
:104F580079007F01021824C082C08375D90275D9EF
:104F68000375D90575E195EA246FF582EB3400F5F0
:104F780083E0F8A3E0F9EA2471F582EB3400F583C5
:104F8800E8F0A3E9F0790102462C74F6121752EA08
:104F9800FEEBFF90054A7406F075084A7509057816
:104FA800081219657C017903120C6574021216F84F
:104FB80075D90675D90375824A758305E0F5D9A3B5
:104FC800E582644F7004E583640570F075E195909F
:104FD80003A7E06408701EEE246FF582EF3400F535
:104FE80083E0F8A3E0F9EE2471F582EF3400F5834D
:104FF800E8F0A3E9F0790102526074F6121752EA58
:10500800FEEBFF9061D0E07066780190054A740B62
:10501800F09003A7E06407701975084A75090578C8
:10502800081219657C017903120C6574021216F8CE
:105038007805740128F5D975D90375824A758305F1
:10504800E8FAE0F5D9A31AEA70F875E195EE246F4D
:10505800F582EF3400F583E0F8A3E0F9EE2471F56A
:1050680082EF3400F583E8F0A3E9F0790180027952
:105078000002526074F7121752EAFEEBFF75D9036B
:1050880075D90375D90DEE24DDF582EF3400F5836B
:10509800E0F5D975E1957904120D8BEE246FF58250
:1050A800EF3400F583E0F8A3E0F9EE2471F582EF20
:1050B8003400F583E8F0A3E9F07901024F5A74F659
:1050C800121752EAFEEBFF9061D0E0F87480C398A3
:1050D800FAEE2482F582EF3400F583E06004780468
:1050E80080027800E8240BF8EAC398500302518B39
:1050F8007D0990054AEDF0EE24E2F8EF3400F97AE4
:105108004B7B057C0888828983E08A828B83F088C0
:10511800828983A3A882A9838A828B83A3AA82AB6C
:10512800831CEC70E0EE2482F582EF3400F583E016
:10513800601D75084A75090578081219657C097992
:1051480003EEFAEFFB120C6574021216F87D0D746B
:10515800012DF5D975D90375824A7583058D08E047
:10516800F5D9A31508E50870F675E1957904120DCF
:105178008BEE241DF582EF3400F583E4F0A3F0797B
:10518800018002790002526074F6121752EAFEEBAF
:10519800FF9061D0E0F87480C398FAEE2482F5821B
:1051A800EF3400F583E06004780480027800E82496
:1051B80008F8EAC398500302525E780690054A74CC
:1051C8000CF09003C4E090054BF09003C5E0900507
:1051D8004CF09003C6E090054DF09003C7E09005B1
:1051E8004EF09003C8E090054FF0EE2482F582EF70
:1051F8003400F583E0601B75084A750905780812C4
:1052080019657C067903EEFA120C6574021216F819
:10521800780A740128F5D975D90375824A7583050A
:105228008808E0F5D9A31508E50870F675E19579C1
:1052380004120D8BEE246FF582EF3400F583E0F84D
:10524800A3E0F9EE2471F582EF3400F583E8F0A3CA
:10525800E9F07901800279007F0202182474F612BD
:105268001752EAFEEBFF9061D0E0F87480C398FA19
:10527800EE2482F582EF3400F583E0600478048040
:10528800027800E82404F8EAC398500302533F78F0
:105298000290054AE8F0EE24F4F582EF3400F58335
:1052A800E090054BF0EE2482F582EF3400F583E0C0
:1052B800601B75084A75090578081219657C02791A
:1052C80003EEFA120C6574021216F87806740128B7
:1052D800F5D975D90375824A7583058808E0F5D92B
:1052E800A31508E50870F675E195EE2473F582EFCD
:1052F8003400F583E4F0EE247FF582EF3400F58383
:10530800E4F0EE241DF582EF3400F583E4F0A3F019
:105318007904120D8BEE240DF582EF3400F583E04D
:10532800F8A3E0F9EE2471F582EF3400F583E8F094
:10533800A3E9F079018002790002526074F612172D
:10534800529061D0E0F87480C398FCEA2482F58218
:10535800EB3400F583E06004780480027800E824E8
:1053680004F8ECC398405B790290054A7407F0EAA8
:1053780024F5F582EB3400F583E090054BF0EA2440
:1053880082F582EB3400F583E0601875084A7509E8
:105398000578081219657C0209120C657402121648
:1053A800F87906740129F5D975D90375824A758388
:1053B80005E9F8E0F5D9A318E870F875E1957901E1
:1053C8008002790002526074F5121752E9FCA2AF0C
:1053D800E433F50AC2AF7D0080010DEA246EF58240
:1053E800EB3400F583E0F8EDC398501A8D08EA25F0
:1053F80008F8EB3400F9E8246AF582E93400F5830B
:10540800E06C70D68024EA246EF8EB3400F9E0FEF4
:10541800EA2EFAEB3400FBEA246AF582EB3400F555
:1054280083ECF088828983E004F0E50AA2E092AF79
:105438007F0302182474F6121752A2AFE433FDC298
:10544800AFEA246EF582EB3400F583E014F07C00BB
:1054580060368C08EA2508F8EB3400F9E8246BF587
:1054680082E93400F583E0C0E0E8246AF582E93493
:1054780000F583D0E0F00CEA246EF582EB3400F5F9
:1054880083E0F8ECC39840CAEA246DF582EB340057
:10549800F58374FFF0EA2469F582EB3400F583E4C0
:1054A800F0EDA2E092AF025260C082C083E5A8F896
:1054B800C2AFEA246AF582EB3400F583E9F0EA2406
:1054C80069F582EB3400F583E4F0E8A2E7A2E792FD
:1054D800AF02462C74F3121752EAFEEBFFECFAED1A
:1054E800FB8A828B83A3A3A3A3E0541FF0EE243688
:1054F800F582EF3400F583E4F0F50AEEFCEFFD8A5F
:10550800828B83E0C0E0EC245DF582ED3400F58306
:10551800D0E0F0750B00E50A33333354F8F50C8A04
:10552800828B83E0F508750900E50B78081216B040
:10553800E508A2E0502FEE2436F8EF3400F988820F
:105548008983E0F508EE2508F508EF3400F509E54C
:10555800082438F582E5093400F583E50CF08882E3
:105568008983E004F0050B050CE50BC3940840AFF4
:10557800050A8A828B83A3AA82AB838C828D83A33C
:10558800AC82AD83E50AC3940550030255077F0535
:1055980002182474F71217529003D3E064017003C1
:1055A8000256F97A009003D9E060030256F97401B3
:1055B800F0A3E4F0A3F090043904F090043EF090D6
:1055C80003DCE4F0A3F0A3F0A3F09003E604F0906A
:1055D800040CE4F09003EFF0A3F0A3F0A3F0A3F021
:1055E800A3F0A3F0900456F090044AF090043F749E
:1055F80080F0A3E4F0900445F09004C1F0A3F0A378
:10560800F0A3F0A3F0A3F0A3F0A3F09004CAF090E5
:105618000459F09004A9F0A3F0A3F0A3F0A3F0A319
:10562800F0A3F0A3F0A3F0A3F09004B5F09004B7B2
:10563800F09004B3F09004CDF0A3F0A3F0A3F0A38E
:10564800F0A3F0A3F0A3F078D37903E8246EF582F1
:10565800E93400F58374FFF00A88828983A3A8825D
:10566800A983EAC3940440E37AD37B0378E17904FD
:1056780088828983E0C0E0EA2461F582EB3400F592
:1056880083D0E0F088828983A3A882A9838A828B49
:1056980083A3AA82AB83E864E67003E9640470D04C
:1056A8007AD37B0378BA790388828983A3E0C0E040
:1056B800EA24E6F582EB3400F583D0E0F0888289AD
:1056C80083A3A882A9838A828B83A3AA82AB83E857
:1056D80064C27003E9640370CF9003D3E004F064FC
:1056E8000170089003DBE09003D5F07AD77B038044
:1056F800047A007B00024F5AC082C0839003DAE428
:10570800F09003D9F09003D3F0A3F0A374FFF075E1
:10571800E1F102462CC082C083780079009003DA58
:10572800E0600478D7790388828983A3A3A3A3E0E0
:10573800F902462C74F6121752EAFEEBFFEE2463C8
:10574800F582EF3400F583E0F8A3E0F9E849700347
:105758000257E1EE2463F8EF3400F97A007B00A2E7
:10576800AFE433F508C2AF88828983E0FCA3E0FD8B
:10577800EC4D603A88828983E0FAA3E0FB8A828B49
:1057880083E0FCA3E0FD88828983ECF0A3EDF08A36
:10579800828B83E4F0A3F088828983E0FCA3E0FD98
:1057A800EC4D700A88828983A3A3E4F0A3F0E5088E
:1057B800A2E092AF1212719004E7E004F09004E8BE
:1057C800E004F0EE2463F582EF3400F583E0F8A3FB
:1057D800E0F9E849600302575B8E828F83A3A3A395
:1057E800E0600F8E828F83A3A3A3E4F09003D4E03C
:1057F80014F09003D3E014F070069003D574FFF012
:105808008E828F83A3A3E4F09004E6E0700D9003EA
:10581800D4E0640170057900120D6DEEFAEFFB1209
:105828000C9502526074F7121752EAFEEBFF8E8253
:105838008F83A3A3A3A3E0FA7B0012096BEEFAEF10
:10584800FB120BE7120C7D024F5AC082C08378BA54
:10585800790388828983A3E4F088828983A3A88254
:10586800A983E864C27003E9640370E69003BB741B
:105878000102462B74F6121752EAFEEBFFEC2403E2
:10588800F8ED3400F988088909EC2407F8ED3400AC
:10589800F9E8FCE9FD8C828D83E0F8A3E0F985083E
:1058A80082850983E0FAA3E0FB121657EE240DF572
:1058B80082EF3400F583E8F0A3E9F08C828D83E071
:1058C800F8A3E0F9850882850983E0FAA3E0FB12D2
:1058D80016578B09EA45096013EE240DF582EF345B
:1058E80000F583E02401F0A3E03400F00252607474
:1058F800F6121752EAFEEBFFEE242EF582EF340083
:10590800F583E0FCA3E0FD780079FAECFAEDFB12F0
:105918001657EE246FF582EF3400F583E8F0A3E91B
:10592800F0780079FAECFAEDFB1216578B09EA4584
:10593800096013EE246FF582EF3400F583E024014B
:10594800F0A3E03400F002526074EC121752EAFE41
:10595800EBFF741412172E780812159A120D258A67
:105968000C8B0D8C0E8D0F751002751100751200C1
:10597800751300780C79101215007510FF7511FF5A
:105988007512FF780C7910121561780C1219618E56
:10599800828F83E0F8A3E0F5838882A3A31215B869
:1059A8001226A374041216F8E96003025AB58E820F
:1059B8008F83E02402F8A3E03400F9E8FAE9FB8ACF
:1059C800828B8378081215268A828B837508FF7567
:1059D80009FF750AFF750B007808121587EE240B6E
:1059E800F582EF3400F583C082C0838E828F83A353
:1059F800A3A3A3A3E02401F8A3E03400F9D083D043
:105A080082E0687003A3E06970057901025AB78ED5
:105A1800828F83A3A3A3A3A3A3A3E02401F0A3E0FD
:105A28003400F0EE2473F582EF3400F583E064016E
:105A38007036EE2474F582EF3400F583E0F8A3E0C5
:105A4800F98E828F83A3A3A3A3A3A3A3E068700303
:105A5800A3E0697013EE2474F582EF3400F583E057
:105A68002401F0A3E03400F0EE247FF582EF340047
:105A7800F583E064017036EE2480F582EF3400F59A
:105A880083E0F8A3E0F98E828F83A3A3A3A3A3A343
:105A9800A3E0687003A3E0697013EE2480F582EF39
:105AA8003400F583E02401F0A3E03400F07900022B
:105AB80047C474F6121752E9FEECFFEA2462F58235
:105AC800EB3400F583E064016003025B639061D00E
:105AD800E0F508EA2482F582EB3400F583E06004FF
:105AE8007804800278007480C39508FC95E0FDEF87
:105AF80028F8E43400F9E82402F8E93400F9EC98CD
:105B0800ED99A2D265D033404E740A12172EE0F5F3
:105B180008A3E0F509EA2482F582EB3400F583E076
:105B280060157808121965EFFCEEF9120C6574021D
:105B38001216F874042FFF74012FF5D98ED9EF606F
