:020000040000FA
:0600000002011A0221B703
:03002B000229297E
:0300530002222A5C
:03006B000228F771
:10008300022023E5C754F84401F5C7790122000093
:100093000080FB120086B90003020104E479217891
:1000A30008B800028004F709D8FCE479297802B87B
:1000B30000028004F709D8FCE490028178C4790730
:1000C3008002F0A3D8FCD9FA781A90014A7A01BACF
:1000D30000028007E493A3F608DAF97A447B0990D7
:1000E300014B783079048015E493A3AD82AE838A03
:1000F300828B83F0A3AA82AB838D828E83D8E9D9C6
:10010300E77582497583A7740312012C7582917573
:100113008300740012012C75D00075813F7518811E
:10012300751902759F00020096C09FF59FE473D076
:100133009F22D083D082C09FE493C0E0740193C018
:10014300E0740293F59F22010909426C654D6F74B7
:100153006F72051250002003020A00020105030218
:10016300F0FF426C654D6F746F7200000000000079
:1001730000000000000000860400008C04FF000063
:10018300B4000028002800283075A000A000A000BB
:10019300A00000080008E001F000100010001000AB
:1001A300100010001000500050005000100010000C
:1001B300D0070000000000000F00010005003075AB
:1001C30007001000010081FF00000000FF9006AE51
:1001D300069606FF02020208025000A0000000E893
:1001E300030222810100009B8102AC81010000D047
:1001F3000902B281010000B90202AC81010000D101
:100203000902B481010000CF0202AC81010000D2D7
:100213000902B681010000D10202AC81010000D3C2
:100223000902B881080000D20202AC81010000D4A7
:100233000902BA81010000D509FF0100FF20022253
:10024300810100009E8102AC81010000390A02BCD9
:1002530081000000000002B0810300001F03660C50
:10026300660C660C660C660C660C660C660C660CFB
:10027300660C660C660C660C000F180FFA0EFFFF77
:10028300020202020202020202010D00000010013A
:10029300022281010000A78102AC810100007C0AD7
:1002A30002E481010000620702AC810100007D0AC3
:1002B30002CE81010000158102AC810100007E0A9B
:1002C30002CC81010000F98002AC810100007F0AA9
:1002D30002CA81010000938002AC81010000800A00
:1002E30002C881010000818002AC81010000810A03
:1002F30002C681010000B78002AC81010000820ABE
:1003030002C481010000A58002AC81010000830AC0
:1003130002C281010000078102AC81010000840A4E
:1003230002C081010000850A01E803053F100AFFAE
:100333000001307503020106000000000000000008
:1003430000000000000000000000000000000000AA
:1003530000000000FFFF0600800CE8030A43686109
:100363007261637465726973746963203100024357
:1003730068617261637465726973746963203200C2
:100383000843686172616374657269737469632099
:1003930033001043686172616374657269737469D1
:1003A3006320340002436861726163746572697328
:1003B300746963203500022281010000A48102AC2C
:1003C30081010000580B02D2810300002E0902DED6
:1003D30081010000590B02AC810100006A0B02D4B9
:1003E300810100002F0902DE810100006B0B02ACCA
:1003F300810100007C0B02D681020000300902DE7D
:10040300810100007D0B02AC810100008E0B02D83C
:1004130081000000310902B081030000320902DECD
:10042300810100008F0B02AC81010000A00B02DAF6
:1004330081040000380902DE81010000A10B104B8A
:10044300657920507265737320537461746500027B
:100453002281010000A18102AC810100003A0C025B
:10046300E2810000003D0902B0810300003E090261
:10047300DE810100003B0C12013550F702120135F9
:10048300ACF902120135D3FA0212013573FB0212E1
:100493000135AB9603120135C29603120135F3966B
:1004A300031201352E9703120135589703120135B4
:1004B300829703120135999703120135B0970312FE
:1004C3000135C79703120135F097031201350398DD
:1004D300031201351998031201352C9803120135C3
:1004E300539803120135ABA702120135AFA80212CC
:1004F3000135E7A8021201350AA90212013515A92F
:100503000212013538A90212013547AA0212013538
:100513001CAB0212013597AB021201351FAC02125C
:1005230001355AAC0212013591AC021201351FADEF
:1005330002120135F8AD0212013558AE021201352F
:1005430063AE02120135E2AE02120135E5AE0212CC
:100553000135E8AE0212013577AF021201357AAFE9
:1005630002120135AAAF02120135D4AF02120135CE
:10057300C2B00212013574B102120135A9E00212B0
:100583000135D1E002120135FFE00212013536E1F7
:100593000212013594E102120135DFE10212013545
:1005A3002AE2021201356AE202120135B0E20212B6
:1005B3000135DEE2021201359BE302120135A5E3A8
:1005C30002120135B2E302120135E5E302120135ED
:1005D300B1E402120135BDE402120135D5E4021281
:1005E3000135DFE402120135ABA403120135B9A4CE
:1005F30003120135D1A403120135E9A40312013515
:1006030095C90112013541CA01120135BCCA011253
:100613000135DDCB0112013519CC01120135C2CCF4
:1006230001120135A9CD011201350DCF011201359A
:1006330064CF01120135E5CF01120135D5D0011286
:10064300013522D101120135A8D101120135DAD1C8
:1006530001120135EED30112013530D401120135F7
:100663004ED401120135D1D401120135A5D50112A1
:1006730001356DD601120135F8C902120135CBCA15
:100683000212013574CB02120135C7CB02120135B8
:1006930077CC0212013503CD02120135EFCD0212E0
:1006A30001351ECE0212013531CF0212013579CF49
:1006B300021201354ED0021201358AD002120135E1
:1006C300A6D002120135C5A603120135008003121C
:1006D30001351680031201353C8003120135588120
:1006E300031201356281031201359782031201352A
:1006F3008F83031201358ED602120135BED7021243
:100703000135F1D7021201353BD80212013502DA65
:100713000212013526AA0112013590AA01120135F0
:10072300EFAB01120135FFAB011201352CAC011205
:10073300013583AC011201352CAD0112013533AE05
:1007430001120135FDAE011201355DB00112013513
:10075300A0B00112013545B10112013592B1011268
:100763000135B8B101120135C6B301120135CBB35E
:1007730001120135D0B5011201351DB60112013543
:1007830090B601120135C3B60112013565B70112E6
:1007930001350EB80112013546B80112013549B8C9
:1007A3000112013591B801120135D1B80112013599
:1007B30028B901120135398D03120135518D031208
:1007C3000135998D03120135AF8D03120135F68D75
:1007D300031201350A8F03120135978F0312013576
:1007E300E28F0312013558290012013564290012E2
:1007F30001359F2900120135E42900120135A42A8D
:10080300001201352A2B001201358F2B00120135FE
:10081300BB2B00120135F42B00120135322E0012CE
:100823000135163000120135FC31001201353F331A
:10083300001201358D35001201359F360012013546
:10084300EA3700120135FA38001201351739001260
:100853000135523900120135743900120135D73987
:1008630000120135983E001201352D3F001201356B
:100873007E3F00120135A53F00120135F73F0012FC
:1008830001351540001201356F4000120135584102
:1008930000120135CE4200120135524300120135D8
:1008A30066E50212013570E502120135B3E5021265
:1008B3000135CEE5021201355EE60212013586E608
:1008C30002120135C3E602120135FAE602120135BE
:1008D30023E70212013598E702120135ADE7021250
:1008E3000135C2E702120135F3E70212013507E8C9
:1008F300021201352CE80212013566E802120135B5
:1009030092E802120135CAE80212013549E90212DE
:10091300013592E902120135BCE902120135E7E91A
:1009230002120135C49F03120135E99A02120135FF
:10093300179B02120135689C02120135449D021275
:100943000135639D02120135E19D021201351A9EA4
:1009530002120135749F021201351FA002120135E4
:10096300A7A20212013545A30212013545A40212C2
:10097300013543A5021201359FA6021201352AA7AC
:1009830002120135409D03120135A99D0312013561
:10099300FD9D03120135249E03120135559E03125A
:1009A300013596EE0212013503EF021201354AEFCB
:1009B3000212013562F0021201355EF102120135B5
:1009C30041F202120135E5B10212013527B20212DA
:1009D3000135F9B202120135D2B302120135CCB49A
:1009E30002120135AEB50212013517B602120135F6
:1009F300CDB60212013541B702120135ADB702126D
:100A03000135D6B70212013550B802120135E9B8E3
:100A1300021201354EB90212013563B902120135D2
:100A2300A9B902120135C2B90212013527BA02125D
:100A330001352ABA02120135408A03120135688A48
:100A430003120135A68A03120135648B03120135A3
:100A5300CB8B03120135E78B031201350F8C031285
:100A630001353F8C031201354E8C03120135CB8CBB
:100A730003120135F18C0312013515BA0112013548
:100A8300F3BB011201353FBE011201357BBE0112DA
:100A93000135A8BE0112013592BF01120135DDBF38
:100AA3000112013528C0011201353AC00112013586
:100AB3007AC001120135AFC001120135FDC0011228
:100AC30001352CC1011201354FC1011201359CC101
:100AD3000112013521C2011201353BC40112013556
:100AE3007EC601120135BFC60112013561C801126C
:100AF3000135A2C80112013515C9011201356BC9AF
:100B030001120135D48D02120135D28E0212013544
:100B13006B95021201358C97021201355799021217
:100B23000135BF9A02120135B943001201357444ED
:100B330000120135A14400120135E74400120135CA
:100B4300274600120135BD47001201353748001210
:100B53000135524800120135CD4800120135274AAC
:100B630000120135874B001201358D4C00120135FF
:100B7300EE4D00120135074E00120135654E00128D
:100B83000135534F00120135864F00120135F64FE0
:100B930000120135705000120135BA5000120135B0
:100BA3008451001201355952001201353853001295
:100BB3000135C35300120135315400120135A554D8
:100BC30000120135D054001201358F550012013542
:100BD300F456001201351157001201353057001237
:100BE300013521580012013546580012013570585D
:100BF30000120135EB580012013545590012013539
:100C0300AE5A001201355C5B001201359D5B001288
:100C130001350080021201354E80021201355A80DF
:100C23000212013538810212013569810212013540
:100C33009A81021201351A8202120135528202127E
:100C43000135A48202120135E18202120135FE84CC
:100C5300021201352487021201350F890212013570
:100C6300F98A021201354D29001201350A96011243
:100C730001353A9601120135139D01120135989EF3
:100C83000112013595A4011201357DA5011201352B
:100C9300C3A501120135E6A50112013517A60112FC
:100CA300013520A6011201352AA60112013518A724
:100CB300011201350EA801120135CD5B0012013579
:100CC3003060001201353660001201357167001281
:100CD30001358A6C001201359CFB0212013532FC8E
:100CE3000212013548FC021201357AFC0212013569
:100CF300EEFC021201352CFD02120135E4FD021255
:100D030001355DFE0212013566FE0212013572FEE7
:100D13000212013587FE02120135C5FE02120135AA
:100D2300DBFE021201353AFF0212013562FF0212A5
:100D3300013503F30212013510F3021201352AF3D0
:100D43000212013569F302120135A7F302120135CC
:100D53000CF40212013521F4021201352CF40212B3
:100D6300013539F40212013550F4021201355EF4F3
:100D73000212013569F40212013575F402120135CC
:100D830084F4021201358FF402120135B2F4021217
:100D9300013559F50212013569F50212013583F562
:100DA30002120135A0F502120135BCF5021201351C
:100DB300E1F502120135ECF50212013501F60212DA
:100DC300013515F60212013576F6021201357CF66D
:100DD3000212013582F60212013588F6021201353C
:100DE300A0F602120135D3F6021201358BD8011297
:100DF30001350FD901120135BED9011201351DDBB1
:100E0300011201353EDD011201352ADE01120135E1
:100E13005FDE0112013581DE0112013530DF01127F
:100E2300013528E10112013551E101120135E3E1F8
:100E33000112013515E20112013522E201120135D9
:100E430079E2011201359FE2011201350CE501122D
:100E530001350FE60112013567E6011201354071D4
:100E6300001201354A720012013531730012013547
:100E73003B73001201355D73001201356973001273
:100E830001350275001201353175001201354D76B9
:100E930000120135A676001201350C7800120135D7
:100EA300EB7800120135477900120135B47900124D
:100EB3000135EF79001201352E7A00120135E77CF6
:100EC30000120135017D001201358D7D00120135BF
:100ED3009B7D00120135F47D00120135027E001264
:100EE3000135757E00120135D97E00120135237F4D
:100EF300001201359AF401120135BCF401120135D7
:100F0300E2F601120135F7F9011201350FFB011267
:100F13000135C2FB01120135A4FC01120135149AFB
:100F230003120135399A03120135AB9A03120135C5
:100F33007EC20212013587C20212013590C202122B
:100F4300013567C30212013518C5021201354EC5BA
:100F53000212013588C502120135BEC502120135E0
:100F6300F8C5021201352CC60212013558C6021209
:100F73000135A1C602120135DBC60212013524C7B1
:100F8300021201357CC702120135B1C702120135C5
:100F93000CC80212013546C80212013597C8021265
:100FA3000135CDC80212013507C90212013535C911
:100FB3000212013558C90212013582A50312013507
:100FC300AEA50312013509A60312013513A60312B8
:100FD300013523A6031201351BD10212013525D198
:100FE3000212013563D102120135ACD1021201356F
:100FF300E6D10212013540D20212013561D202124A
:1010030001356AD202120135BBD202120135E4D294
:1010130002120135EED2021201355AD30212013502
:10102300E8D30212013536D4021201356CD4021210
:101033000135F3D40212013533D5021201356BD5D4
:10104300021201357DD5021201359CD502120135FC
:10105300A5D50212013564D60212013592FF0212A0
:101063000135E1A103120135AC9403120135E29479
:1010730003120135189503120135719603120135D8
:101083002DA60312013543A6031201354DA6031203
:10109300013597A6031201350FEA0212013528EA3A
:1010A30002120135CCEA021201350CEB02120135B2
:1010B30025EB0212013559EB02120135A6EB0212A0
:1010C3000135DAEB021201351CEC021201351CEE7C
:1010D3000212013589EE02120135DBA2031201353A
:1010E30004A3031201352DA30312013545A30312F3
:1010F300013587A3031201352F8703120135548766
:1011030003120135808703120135A1A703120135AC
:10111300E781011201354B8401120135FD8501126E
:101123000135EF8601120135748701120135F2870B
:10113300011201351F8801120135438B011201355C
:10114300BD8B01120135AC8C01120135E68C011205
:101153000135268D01120135E08E01120135338FE1
:10116300011201357C8F01120135EA8F011201351D
:101173001C9001120135349001120135499101127D
:101183000135599101120135899201120135AB9252
:1011930001120135E19201120135869401120135E4
:1011A300C59401120135E5950112013506A8031214
:1011B3000135AC7F00120135EB7F0012013517A812
:1011C30003120135CCA303120135DCA3031201354D
:1011D300F1A303120135A5A403120135DDA0031207
:1011E300013562A103120135C8A1031201359B9E8B
:1011F30003120135C29E03120135189F03120135F4
:101203002A9F031201357A9F03120135B89F0312F7
:101213000135BB9F03120135B5DB02120135C9DB72
:101223000212013542DC021201351BDD02120135C7
:10123300D9DF021201353EE00212013595E00212B8
:101243000135F87F001201357792031201350294BC
:1012530003120135639403120135A9940312013576
:10126300B99B031201350E9C031201357C9C0312BA
:101273000135EC9C031201350C90031201353690B5
:10128300031201350B9103120135FF91031201354E
:101293004EBA021201350BBB0212013546BB0212D4
:1012A30001356EBB02120135D0BB021201351CBCE5
:1012B3000212013575BC0212013506BD0212013559
:1012C30008BE02120135C5BF0212013547C0021222
:1012D3000135ACC002120135C3C002120135D3C1BE
:1012E3000212013511C202120135B5E601120135B0
:1012F3003FEA01120135C7EB011201351EEC011261
:1013030001353DEC01120135BBEC0112013559EEFB
:10131300011201353DEF0112013527F301120135A9
:10132300F7F301120135998303120135DE830312AA
:101333000135FB8303120135AC8403120135FF84AD
:1013430003120135DA8503120135F68603120135DE
:10135300659803120135AA9803120135FE9803120A
:1013630001357C9903120135DB9903120135C8FF5E
:1013730001120135E8A703E066701008A3E0667068
:101383000A08A3E066700408A3E06622C3E7960890
:1013930009E7960809E7960809E79622C3E0960845
:1013A300A3E09608A3E09608A3E09622C008C3E052
:1013B30096F50808A3E096420808A3E096420808B9
:1013C300A3E09645087001D3D00822080808EAC0B4
:1013D300E0EBC0E086F0E7A4FA180986F0E7A42A58
:1013E300FA180986F0E7A42AFA180986F0E7A42A6E
:1013F300FA1986F0E7A4FBE5F02AFA190886F0E764
:10140300A42BFBE5F03AFA190886F0E7A42BFBE5D9
:10141300F03AFA18180986F0E7A4C5F02BFBE43A72
:10142300FA1908E7C5F0C6A426F6E5F03BFBE43A53
:10143300FA1886F0E7A4F6E5F00826F6E43B08F68A
:10144300E43A08F6D0E0FBD0E0FA22E4CFC0E0E4CF
:10145300CEC0E0E4CDC0E0E4CCC0E075F020E626E9
:10146300F608E633F608E633F608E633F6181818F6
:10147300EC33FCED33FDEE33FEEF33FFC3EC9709A2
:10148300ED9709EE9709EF97191919400FFFEC979C
:10149300FC09ED97FD09EE97FE191906D5F0BFEC8F
:1014A300F709EDF709EEF709EFF7191919D0E0FC81
:1014B300D0E0FDD0E0FED0E0FF226016080808C6A9
:1014C300C313C618C613C618C613C618C613C6D583
:1014D300E0EA227009080808226016181818C6C323
:1014E30033C608C633C608C633C608C633C6D5E0F6
:1014F300EA22E627F60809E637F60809E637F6088A
:1015030009E637F622E026F608A3E036F608A3E05C
:1015130036F608A3E036F622E026F008A3E036F01C
:1015230008A3E036F008A3E036F022C3E697F608F6
:1015330009E697F60809E697F60809E697F622C33F
:10154300E096F008A3E096F008A3E096F008A3E085
:1015530096F022E657F60809E657F60809E657F625
:101563000809E657F622E056F608A3E056F608A364
:10157300E056F608A3E056F622E056F008A3E0563C
:10158300F008A3E056F008A3E056F022E0F608A323
:10159300E0F608A3E0F608A3E0F622E6F008A3E6E7
:1015A300F008A3E6F008A3E6F022E0FAA3E0FBA329
:1015B300E0FCA3E0FD22EAF0A3EBF0A3ECF0A3ED43
:1015C300F022E0F8A3E0F9A3E0FAA3E0FB22E8F0BD
:1015D300A3E9F0A3EAF0A3EBF022CAC0E0E6F0A38C
:1015E30008DAFAD0E0FA22CAC0E0E0A3C582CCC58B
:1015F30082C583CDC583F0A3C582CCC582C583CD07
:10160300C583DAE6D0E0CA22C3E498F8E499F91274
:10161300164C8026C3E49AFAE49BFBE920E7E9121F
:10162300164CE498F8E499F922C3E498F8E499F99C
:1016330012164CE498F8E499F9C3E49AFAE49BFB94
:1016430022EB20E7CFE920E7E0B90010BB0008E870
:101653008AF084F8AAF022E4FBC8FA22EB70227B1A
:1016630010C833C8C933C9335007C39AC3DBF280E8
:10167300069A50012ADBEAC833F4C8C933F4C9FA1D
:101683002275F008E4C833C8C933C933C99AC99B62
:101693005004C92AC93BD5F0ECFBC833F4C8E4C9EC
:1016A300FA22600D08C6A2E713C618C613C6D5E012
:1016B300F322600C08C6C313C618C613C6D5E0F4DC
:1016C30022700422600D18C6C333C608C633C6D5BC
:1016D300E0F41822251810AF08F518400C151980EE
:1016E30008F51840021519D2AF2200C0D0251810F2
:1016F300AF08F518500C05198008F51850020519A4
:10170300D2AFD0D0222518F58210AF08F518400CBF
:1017130015198008F51840021519D2AF85198322CF
:101723002518F582E43519F583222518F8E43519CF
:10173300F9222518FAE43519FB222518FCE435199A
:10174300FD22E4732518C582C0E0E51934FFC58383
:10175300C0E0E518C3958224F810AF088583198586
:1017630082188008858319858218D2AFCEF0A3E54D
:1017730020F0A37808E608F0A3DEFAEFF0A3E581F2
:1017830024FAF8E608F0A3E608F0A3E608F0A308B5
:1017930008E608F0A3E608F0A315811581D0E0FE62
:1017A300D0E0F8158115811581E8C0E0EEC0E02294
:1017B3002518C582C0E0E51934FFC583C0E0E518EC
:1017C300C3958224F910AF08858319858218800890
:1017D300858319858218D2AFCEF0A3E520F0A378D4
:1017E30008E608F0A3DEFAEFF0A3E58124FBF8E6B0
:1017F30008F0A3E608F0A30808E608F0A3E608F05B
:10180300A315811581D0E0FED0E0F815811581E89C
:10181300C0E0EEC0E022851983851882E0A3FEE0D4
:10182300A3F5207808E0A3F608DFFAE0A3FFE0A31E
:10183300C0E0E0A3C0E0E0A3C0E0E0A3C0E0E0A319
:10184300C0E010AF08858218858319800885821847
:10185300858319D2AFD083D0820201328519838563
:101863001882E0A3FEE0A3F5207808E0A3F608DFE2
:10187300FAE0A3FFE0A3C0E0E0A3C0E0E0A3C0E080
:10188300E0A3C0E010AF088582188583198008851E
:101893008218858319D2AFD083D08222C0D0251875
:1018A300C582C0E0E51934FFC583C0E0E518C395E0
:1018B3008224F310AF0885831985821880088583F5
:1018C30019858218D2AFC8F0A3E9F0A3EAF0A3EB1D
:1018D300F0A37908E709F0A3D8FAECF0A3EDF0A39D
:1018E300EEF0A3EFF0A3D0E0F0A3D0E0F0A3D0E0BC
:1018F300F0A3E520F0A3E5F0F0A322851983851872
:1019030082E0C0E0A3E0F9A3E0FAA3E0FBA3780838
:10191300E0F608A3DFFAE0FCA3E0FDA3E0FEA3E00A
:10192300FFA3E0C0E0A3E0C0E0A3E0F5D0A3E0F5AF
:1019330020A3E0A3F5F010AF0885831985821880F2
:1019430008858319858218D2AFD082D083D0E0F87E
:10195300D0E03274048006740280027401C0E0F4A3
:1019630004121708D0E01215DD22740480047402F7
:101973008000CCC0E0EDC0E0E518C39CCCAD1950AD
:10198300011D10AF068C188D1980068C188D19D285
:10199300AF1215EAD0E0FDD0E0FC22D083D082E97B
:1019A300C0E0E493A3C386F0C5F095F0F908E4938F
:1019B300A386F0C5F095F0700BE493A3C39940059B
:1019C300E9048002A3E475F002A42582F582E5F020
:1019D3003583F583D0E0F9E493A3C0E0E493C0E05A
:1019E30022D083D082ECC0E0EDC0E0E493A3FCE41A
:1019F30093A3FDED4C600D121A30EC24FFFCED3483
:101A0300FFFD80EFE493A3FCE493A3FDED4C600D95
:101A1300121A6FEC24FFFCED34FFFD80EFD0E0FDE4
:101A2300D0E0FCE493A3C0E0E493C0E022C0E0C3B1
:101A3300E49396087401939618400FE49366700834
:101A430008740193661870007019A3A3C3E49396F6
:101A5300087401939618A3A3400DD0E0D0E0D0E022
:101A6300021A20A3A3A3A3A3A3D0E022C0E0C0F043
:101A730088F0E4936670080874019366187000A8F0
:101A8300F0A3A3700BD0F0D0E0D0E0D0E0021A2096
:071A9300A3A3D0F0D0E02274
:101A9C0074F51217B3EAFEEBFFEE2434F8EF3400C2
:101AAC00F988088909EE2435F582EF3400F583E0D6
:101ABC00F8EE2437F582EF3400F583E0F50AEC8577
:101ACC000AF0A4FCAAF0850AF0EDA42AFDE82CF893
:101ADC00E43DF97A257B0012164CEA8508828509CB
:101AEC0083F0F8740758F97401B900028004C33309
:101AFC00D9FCFAE8131313541FF8EE28F8EF34004E
:101B0C00F9E8245DF582E93400F583E05A6008EECB
:101B1C002434F582EF802CEE2434F582EF3400F57A
:101B2C0083E0C0E0EE2436F582EF3400F583E0F577
:101B3C00F0D0E084A8F0EE28F8EF3400F9E824386F
:101B4C00F582E93400F583E0F97F0402185F74F53F
:101B5C001217B3EAFEEBFFEE2434F582EF3400F5F6
:101B6C0083E0C0E0EE2435F582EF3400F583D0E05D
:101B7C00F08E828F83A3A3A3A3A3A3A3C082C0834D
:101B8C008E828F83A3A3A3A3A3E0F8A3E0F9D08351
:101B9C00D082E0C398F508A3E099F509EE247FF50F
:101BAC0082EF3400F583E064017069EE2480F582E5
:101BBC00EF3400F583E0F8A3E0F98E828F83A3A3C2
:101BCC00A3A3A3A3A3E0FCA3E0FD8E828F83A3A316
:101BDC00A3A3A3E0FAA3E0FBC3EA9CEB9D5010C3C4
:101BEC00EC98ED99402EC3EA98EB995027800EC3E0
:101BFC00EA98EB994007C3EC98ED9940177CE17D8E
:101C0C0004EEFAEFFB120BC4EE247FF582EF3400E6
:101C1C00F583E4F0EE2434F8EF3400F9E8FCE9FD48
:101C2C00EE2435F582EF3400F583E0F8EE2437F539
:101C3C0082EF3400F583E0F50AE508850AF0A4F597
:101C4C0008AAF0850AF0E509A42AF509E82508F8A0
:101C5C00E43509F97A257B0012164CEA8C828D83C7
:101C6C00F0F8740758F97401B900028004C333D931
:101C7C00FCFAE8131313541FF8EE28F8EF3400F9AC
:101C8C00E8245DF582E93400F583E05A6008EE241F
:101C9C0034F582EF802CEE2434F582EF3400F5839A
:101CAC00E0C0E0EE2436F582EF3400F583E0F5F089
:101CBC00D0E084A8F0EE28F8EF3400F9E82438F5E9
:101CCC0082E93400F583E0F91228E3021B55C08247
:101CDC00C083851882851983E0F8A3E0F9C3EA9CD8
:101CEC00EB9D5010C3EC98ED99401BC3EA98EB990F
:101CFC005014800EC3EA98EB994007C3EC98ED9909
:101D0C004004790180027900D083D08222EAC39CFE
:101D1C00FAEB9DFB2274EF1217B39003A7E0640853
:101D2C006005E06407702A9061C8E060249003D5D8
:101D3C00E0F4601DE0F875F003A4C8AAF02AF97469
:101D4C00D728FE740339FF8E828F83A3A3A3E07080
:101D5C0003021E51906060E0C0E0EE2468F582EF53
:101D6C003400F583D0E0F0750C4A750D057508004C
:101D7C00750900E5D914F50AE5D95403F50E601779
:101D8C007403650E605CE50A6010EE2467F582EF63
:101D9C003400F583E07003021E36900545E06401C3
:101DAC00602AEE2482F582EF3400F583E06004783B
:101DBC000480027800850A08E508C398FA95E0FBD0
:101DCC00120A8C8A088B09EA45097005120DCE801F
:101DDC0074EE2482F582EF3400F583E070048A0CF3
:101DEC008B0DE50A6012850C82850D83F50BE5D908
:101DFC00F0A3150BE50B70F6EE2482F582EF3400A0
:101E0C00F583E0604474FC250AF50A780C12195A23
:101E1C00AC0AA90EEEFAEFFB120C6074021216ED6E
:101E2C00E97026AA08AB09121266793D8E828F835F
:101E3C00A3A3A3A3E0FA7B00120960EEFAEFFB1256
:101E4C000BDC120C72790080747403650E6056857D
:101E5C000A10751100781012195AAC0CAD0DAA08A5
:101E6C00AB09120C3C74021216EDEE2468F582EFED
:101E7C003400F583E064807004747F8001E0F50C1D
:101E8C00780C12195EE50EF50C780C12195EA90A85
:101E9C00AC08AD099003D5E0FA7B0012092474025A
:101EAC001216ED80139003A7E06408600BAC0CAD28
:101EBC000DEEFAEFFB120CCC120DDA79017F0A024F
:101ECC00185F74F51217B374FC1216D7EAFEEBFF09
:101EDC008908A2AFE433F509C2AF806AEE2463F837
:101EEC00EF3400F97A007B00A2AFE433F50AC2AFFD
:101EFC0088828983E0FCA3E0FDEC4D603A888289FE
:101F0C0083E0FAA3E0FB8A828B83E0FCA3E0FD88EC
:101F1C00828983ECF0A3EDF08A828B83E4F0A3F04A
:101F2C0088828983E0FCA3E0FDEC4D700A888289ED
:101F3C0083A3A3E4F0A3F0E50AA2E092AF12126629
:101F4C009004E8E004F0EE2463F582EF3400F583AE
:101F5C00E0F8A3E0F9E849603DEE2463F582EF3444
:101F6C0000F583E02402FAA3E03400FBEA2402F536
:101F7C000AEB3400F50B780A12195A8A828B83E02B
:101F8C00FCA3E0F9EEFAEFFB120C0074021216ED52
:101F9C00E97003021EE89004E8E060639004E9E055
:101FAC00F89004E8E0C398500C74026508705090E7
:101FBC0004EAE0604A8E828F83A3A3A3A3E0851872
:101FCC0082851983F0A3E4F09004E8E0F87402121F
:101FDC001723E8F0A3E4F09004E8E0F89004E7E0BD
:101FEC0028F07402121723AC82AD838518828519F0
:101FFC0083AA82AB8379011209309004E8E4F0E5FE
:10200C0009A2E092AF74041216ED021B55000000F9
:10201C008521878522C622C0E0C0D0E8C0E0E9C097
:10202C00E0EAC0E0EBC0E0ECC0E0EDC0E0EEC0E008
:10203C00C008C009C00AC00BC082C083C0F0A2AFE8
:10204C00E433FEC2AF759B00906182E0A2E05012B7
:10205C00E591A2E0500C7591FE740165217003129C
:10206C001D21E0A2E55051E591A2E5504B7591DFA1
:10207C009003A7E064076005E064087023740165B1
:10208C0021703579019003D5E0FA75F003A4CAA844
:10209C00F028FB74D72AFA74033BFB121ECE80186F
:1020AC00E0640D70139003C9E004F064287002E43E
:1020BC00F07A00E0F9120DE0906182E0A2E64003B4
:1020CC0002216AE591A2E6400302216A7591BF9054
:1020DC0003A7E064057008120D02120D0E800312A6
:1020EC000D08752100120D6EE99003A8F07900120D
:1020FC000D62120B3A7A017B009003A6E0F91210E4
:10210C0032907803E064427055900549E014F07009
:10211C004DC2AF12212200782AD0E0F618D0E0F69A
:10212C00E59F540770057509FF800375097FC4C0CE
:10213C00E07829E6F50808E65509F509740B7808E6
:10214C001216B5D0E02508F8906270E0A2E740F8CE
:10215C00E8C333906272F0906270E0D2E0F090616C
:10216C0081E0A2E35009E5E9A2E3500375E9F7A386
:10217C00E0A2E75009E591A2E7500375917FEEA22A
:10218C00E092AFD0F0D083D082D00BD00AD009D05F
:10219C0008D0E0FED0E0FDD0E0FCD0E0FBD0E0FACF
:1021AC00D0E0F9D0E0F8D0D0D0E032C0E0C0D0C060
:1021BC0082C083906183E0A2E05009E5BFA2E050A9
:1021CC000375BFFEE0A2E15009E5BFA2E150037523
:1021DC00BFFDE0A2E25009E5BFA2E2500375BFFBD0
:1021EC00E0A2E35009E5BFA2E3500375BFF7E0A2FC
:1021FC00E45009E5BFA2E4500375BFEFE0A2E5503F
:10220C0009E5BFA2E5500375BFDFE0A2E65009E582
:10221C00BFA2E6500375BFBFD083D0828088C0E0D8
:10222C00C0D0E8C0E0E9C0E0EAC0E0EBC0E0ECC040
:10223C00E0EDC0E0C0F0E5A7A2E6500FE5A1A2E6F4
:10224C00500953A7BF75A1BF12228FE5A7A2E55075
:10225C000CE5A1A2E5500653A7DF75A1DFE5A7A207
:10226C00E15009E5A1A2E1500375A1FDE5A7A2E2A9
:10227C00500CE5A1A2E2500653A7FB75A1FBD0F0D0
:10228C000221A074F81217B37521019003A7E06422
:10229C00067015120C908A828B83A3A3A3A3A3A30D
:1022AC00E0FAA3E0FB120CF0A2AFE433FED2AF9045
:1022BC0003ADE0640170187A207B009003A6E0F96E
:1022CC001210BC7A207B009003A6E0F91210389013
:1022DC006182E0D2E6F0900546E0602185C622805E
:1022EC00169003ACE064017008E5C654F84405F59B
:1022FC00C653BEFC12201C7401652160E4EEA2E002
:10230C0092AF7F0102185F008E238F24858228856F
:10231C008327851882851983E0CEA3E0CF85288298
:10232C00852783EBC9EAC8EDCBECCA75F010C3E87E
:10233C0033C8E933C9EA33CAEB33CBC3EA9EF5267B
:10234C00EB9FF525B35004AB25AA26EC33CCED332B
:10235C00CDD5F0DAAE23AF242274E91217B374F89A
:10236C001216D7851882851983ECF0A3EDF08A0834
:10237C008B09120D268508828509831215B99003E5
:10238C00A7E024F7C394055006750801022508122E
:10239C000C908A0A8B0BAE0AAF0BEE4F7003022522
:1023AC0005AC08AD097402121723AA82AB83120D77
:1023BC00208E828F83A3A3750CFF750DFF750EFF06
:1023CC00750F00780C12156974021217237510FF23
:1023DC007511FF7512FF7513007810121569780CC2
:1023EC00791012138F502A780C791012152E75084B
:1023FC00017509C8750A00750B007808790C121361
:10240C008F5052850C08850D09850E0A850F0B809F
:10241C00507514017515C8751600751700851008D0
:10242C0085110985120A85130B7808790C12152E63
:10243C007814790812138F401C7508007509007503
:10244C000A00750B017808791012152E7808790C92
:10245C001214F5800C750801750900750A00750BCE
:10246C0000740978081214D6750C19F50DF50EF5D3
:10247C000F7808790C12144E8E828F83A3A3A3A31A
:10248C00A3A3E0F8A3E0F97AD07B0312164C880CD6
:10249C00890DE4F50EF50F7808790C1214F5740615
:1024AC00121723E0F8A3E0F97AD07B0312164CE85C
:1024BC00FA8A0CE4F50D7808790C12138F50077812
:1024CC0008790C12152E9003A7E06408600AE064EA
:1024DC00066005E06405702D750C0D780C790812FA
:1024EC00138F4021750CF4750DFF750EFF750FFFE2
:1024FC007808790C1214F5800C75080075090075B4
:10250C000A00750B00851882851983E0F8A3E0F5A5
:10251C00838882780812159E74081216ED7F1002BB
:10252C00185F74F71217B3120D38900544E064016C
:10253C007010906245E4F0A3F053F4F343FE0C5397
:10254C0090F3120CDEE5C654B84441F5C6E59E5432
:10255C0047644170F8906185740FF0900542E0F487
:10256C007002A3E0604E900543E0600814601B14F9
:10257C00602E8040750801750900900542E07808CE
:10258C001216C4E508F45280802A750801750900FA
:10259C00900542E078081216C4E508F452908014B5
:1025AC00750801750900900542E078081216C4E51B
:1025BC0008F452A079007F0202185F74F71217B367
:1025CC00E9FEEAFF120D3874016E700C7A807B0004
:1025DC009003A6E0F9121032902950E493F46008AD
:1025EC00E493F9120B2E800953C6B8E59E5447703C
:1025FC00FA120CE4900544E064017003120B46904F
:10260C000542E0F47002A3E0604B900543E06008E3
:10261C0014601A14602C803D750801750900900532
:10262C0042E078081216C4E508428080287508013B
:10263C00750900900542E078081216C4E50842902E
:10264C008013750801750900900542E07808121690
:10265C00C4E50842A0120C908A088B09A808A909A5
:10266C00E8496015E5E170FCE82414F582E93400D2
:10267C00F583E0F46003E0F5E174016F700A7A0110
:10268C009003A6E0F912108C0225C274ED1217B358
:10269C008A088B098C0A8D0B7413121723780C1271
:1026AC00158F7808790C12138F7510017511C87578
:1026BC00120075130050127808790C12152E781030
:1026CC00790812138F50168010780C790812152E79
:1026DC007810790C12138F40047901800279007FF5
:1026EC000C02185F74ED1217B38A088B098C0A8DD3
:1026FC000B7413121723780C12158F780C7908129F
:10270C00138F40117808790C12152EAA08AB09AC5E
:10271C000AAD0B802275100075110075120075132F
:10272C00017810790C12152E781079081214F5AA6C
:10273C0010AB11AC12AD1380A68A828B837508FF87
:10274C007509FF750AFF750B00780812157C7F045C
:10275C0002185F74F51217B38C828D8378081215EA
:10276C008F8A828B837808121542EA2404F8EB34A2
:10277C0000F98C828D83A3A3A3A3E0FCA3E0FD88C6
:10278C00828983C3E09CF0A3E09DF088828983C397
:10279C00E09420A3E0944E40268A828B837508FF38
:1027AC007509FF750AFF750BFF780812151B8A82D5
:1027BC008B83A3A3A3A3E02420F0A3E0344EF00268
:1027CC00274574F51217B3E9FE9004FCE0FAA3E078
:1027DC00FBEEC333F8E433F974E928F582748039DD
:1027EC00F583E02AF508A3E03BF509780812195A9D
:1027FC007A407B427C0F7D0012231474021216ED7A
:10280C008A088B098C0A8D0B741078081214BDAAD7
:10281C0008AB097F0402185F74F11217B38A0C8B92
:10282C000D8C0E8D0F740F121723E0FAA3E0FB74BE
:10283C0011121723E0F508A3E0F509780812195ACC
:10284C00EA2401F508EB3400F509E4F50AF50B78F8
:10285C000C79081213CE750871750902780C790879
:10286C001213CEAA0CAB0DAC0EAD0F1223147402C6
:10287C001216ED8B09EA450960047A0180027A0090
:10288C00EC2AFCED3400FD7413121723E0F8A3E0DE
:10289C00F9E8FEE9FFECF8EDF97A717B0212164CBF
:1028AC00880889098E828F83780812159EECF8EDC2
:1028BC00F97A717B0212164C8A088B097405780818
:1028CC001216C48E828F83A3A3A3A3E508F0A3E5FD
:1028DC0009F07F0802185FC082C083E9906000F0A5
:1028EC00D083D08222C2AF02000022C0E074F21268
:1028FC00189FA2AFE433FED2AFE589A2E04006E513
:10290C0089A2E15003121206758900758900C2C5AF
:10291C00751A00EEA2E092AF7F010218FEC0E0C073
:10292C00D0E8C0E0E9C0E0E5A8D2AFC2C7751A0094
:10293C00A2E7A2E792AFD0E0F9D0E0F8D0D0D0E097
:10294C0032020132FFFFFFFFFFFFFFFFC082C08397
:10295C00E9900A38F0022BE774F7121747E9900256
:10296C00E7F07C1F7D037AFF7BFF1208769002E86C
:10297C0074FFF0A3F0A3E4F0A3F079051207FE9026
:10298C0002E7E0F91207207A947B08120A3E7F01D5
:10299C0002181974F41217478A088B09EB548060DB
:1029AC00309002E7E0F912101A8A0A8B0BAE0AAFCC
:1029BC000BEE4F60138E828F83E064B070031208AD
:1029CC0016EEFAEFFB121008AA08E5096480FB80EA
:1029DC00047A007B00022BB674F212174774FC12B7
:1029EC0016D7EAFEEBFFEE4F60387402121723EE97
:1029FC00F0A3EF122E1BECF0A3ED122E1BAA82AB50
:102A0C008312071AE9F5087073741212172312391E
:102A1C00CFE50A450B60658E828F83122A92EE4FAA
:102A2C00700575080280557A067B001210748A0CAA
:102A3C008B0DA80CA90DE8497005750813803D880D
:102A4C00828983E4122A9CA3A3EEF0A3EF123E68C2
:102A5C00E50AF0A3E50BF09002ED122B249002EDA9
:102A6C006017E0FCA3E08003EAFCEBFD8C828D8315
:102A7C00122B2470F38C828D831238F4A908740401
:102A8C001216ED02406AA3A3A3A3E0FEA3E0FF226B
:102A9C00F0A3F0888289832274F2121747890AE91D
:102AAC0075F017A4FEAFF09002ECE4F09002EA127D
:102ABC002B24600A12107A9002EAE4F0A3F0EEFAEA
:102ACC00EFFB1210748A088B09EA4509602FEEFCA3
:102ADC00EFFD7900120FF69002EAE508F0A3E50984
:102AEC00F07B008008122B0EE4F0A3F00BEBC395E7
:102AFC000A40F2E50A9002ECF079008002791302A8
:102B0C00406AEB75F017A4F8A9F09002EAE028FAF5
:102B1C00A3E0398A82F5832212368AEA4B2274F4B6
:102B2C00121747750800750900740C121723123E12
:102B3C003CFEE9FF800CE5082401F508E5093400AA
:102B4C00F509C3E5089CE5099D503285080A8509FD
:102B5C000B7403780A1216C4EA250AF8EB350BF944
:102B6C0088828983A3A3A3A3A3A31239CFEE650AFA
:102B7C007003EF650B70BFE8FAE9FB80047A007B09
:102B8C0000802774F41217477900EAA2E0501B75F5
:102B9C00084A750981780812195A7C047D007A3A22
:102BAC007B0A1207F874021216ED7F04021819C082
:102BBC0082C0839002ED122BEE601C88828983A365
:102BCC00A3E06A7003A3E06B8882898370E8A3A3F7
:102BDC00A3A312368680047A007B00D083D08202B5
:102BEC00013212413DE8492274EE12174774FC126F
:102BFC0016D7EAFEEBFF851882851983E4F0A3F063
:102C0C00EE24021238D8EE2405122E09EE2404F517
:102C1C000EEF1231EEE024FE603924FC604624FEF7
:102C2C00605224FE605E24FE7003022D0E24FE70A2
:102C3C0003022D8624FE7003022D9524FE700302E0
:102C4C002DA424FC7003022DB324FE7003022DC2AC
:102C5C00022DFF9003067417F0A3E4122E23120426
:102C6C0098022DFF851882851983AC82AD831208DA
:102C7C001C022DCF851882851983AC82AD83120876
:102C8C0022022DCF850C08850D097402121723AC76
:102C9C0082AD8385088285098312368612073E8AA7
:102CAC000C8B0DAC0CAD0DEC4D6042E4F50CF50D40
:102CBC00780C12195A750C06750D03780C12195AEA
:102CCC00750C07750D03780C12195A74081217231A
:102CDC00121971791612368012085E74081216EDEC
:102CEC00E9F50C700B12367C1204B0800F750C01D8
:102CFC00850882850983122E111238F4850C08027E
:102D0C002DD27402121723AC82AD83850C82850DF3
:102D1C008312368612073E8A108B11AC10AD11EC63
:102D2C004D6043850C82850D83A3A3121971751018
:102D3C0006751103781012195A751007751103785E
:102D4C001012195A740812172312197179161236A7
:102D5C008012085E74081216EDE9F509700B123634
:102D6C007C1204B6800F750901850C82850D8312C7
:102D7C002E111238F4850908804C85188285198328
:102D8C00AC82AD83120828803A851882851983ACF1
:102D9C0082AD8312082E802B851882851983AC8214
:102DAC00AD83120834801C851882851983AC82ADE2
:102DBC008312083A800D851882851983AC82AD8305
:102DCC00120840E9F508E50860298E828F83A3E09C
:102DDC006414601F850E82850F83E0900306122E0B
:102DEC001B1241399003071238F4E508A3122E2365
:102DFC00120492EEFAEFFB1207BC0237E0F50CEF6F
:102E0C003400F50D2212413D85188285198322F07C
:102E1C0085188285198322F07C067D03850A8285BC
:102E2C000B8312368A2274EE12174774FC1216D7D3
:102E3C008A0A8B0B8C0E8D0FEA2405F508EB3400F7
:102E4C00F5097C157D0079007A067B03120FF6E5F7
:102E5C00082402F50CE509122E0C851882851983BD
:102E6C00858210858311781012195A85088285097C
:102E7C0083A3A3A3A312333612195AE5082405F52C
:102E8C0010E5093400F511781012195A850C828559
:102E9C000D8312369012073874061216ED8A108BB9
:102EAC0011AE10AF11E50A2402F50AE50B1238DB5E
:102EBC00EE4F7003022FF88017740212172312368C
:102ECC008688828983EAF0A3EBF0900306E004F095
:102EDC00900306E0C394054003022FF8E4F510F5C7
:102EEC0011781012195A7510EF7511027810121909
:102EFC005A7510F0751102781012195A74061217BF
:102F0C00231219717910EEFCEFFD12368012085E57
:102F1C0074081216EDE9705E850882850983A3A3F7
:102F2C00A3A3A3A3A3E0F89002EFE06870481233C8
:102F3C003612195A7CF07D02E5082408FAE50934AA
:102F4C0000FB120FF074021216EDE960298E828FCD
:102F5C0083A3A3A3A3123686900306E0F510740294
:102F6C0078101216C474072510F58274033511F508
:102F7C0083EAF0A3EBF07402121723858210858389
:102F8C0011781012195A7402121723121971850C28
:102F9C0082850D8312414E12074474041216ED8A79
:102FAC00108B11AE10AF11900306E0F510751100E7
:102FBC00740278101216C474062510F874033511B7
:102FCC00F988828983A3122B247003022EBCE82477
:102FDC0003F8E93400F9EE4F6003022EC5888289AC
:102FEC008374FFF0A3F0900306E004F0900306E076
:102FFC00600A12367C1204A47900800B8508828545
:10300C0009831238EB790A0237E074EA1217477415
:10301C00FE1216D78C128D13EA2405F50CEB124216
:10302C00B8122A96750800750900EA2402F510EB0F
:10303C003400F51185188285198385820A85830BE6
:10304C00780A12195A850C82850D83A3A3A3A312A7
:10305C0031F812195AE50C2405F50AE50D1238DB86
:10306C00780A12195A850C82850D8312414C12076D
:10307C003874061216ED8A0A8B0BEA450B700302A4
:10308C0031A9EA2404F50EEB1231EE122A968A824B
:10309C008B83A3A3A3E0F985108285118312368656
:1030AC00120726E9F50960030231A9E4F514F515B8
:1030BC00781412195A7514EF751502781412195ADE
:1030CC007514F0751502781412195A740612172318
:1030DC001219717913AC0AAD0B851082851183120C
:1030EC00368612085E74081216EDE9F509600302C3
:1030FC0031A99002EFE0F8E5087009E02402900392
:10310C0007F08017900307E0FCE82402FAE434008F
:10311C00FBEA6C7001EB60030231AD850882AA8278
:10312C0012332D94141233255073850E82850F8320
:10313C00E0C0E074082A1231E5D0E0F00508850EF5
:10314C0082850F83A3E0C0E085080A7408250A1263
:10315C0031E5D0E0F005089002EF1231F812195A5F
:10316C007CF07D0285080A7408250AFA7403340081
:10317C00FB120FDE74021216ED9002EFE02508F53B
:10318C000874FF6E700374FF6F6012EE24010EEF73
:10319C003400FFE508C394145003023040E5086086
:1031AC00131235718510828511831236861204AA8A
:1031BC0079008014E509700375090A85128285135C
:1031CC0083EEF0A3EFF0A90974021216ED7F0E0244
:1031DC00181985080C7408250CF58274033400F555
:1031EC0083223400F50F850E82F58322123E7B225A
:1031FC0074EE12174774FE1216D78C0E8D0FEA243C
:10320C0005F50CEB122E0C750B00900306E4F0F593
:10321C000AEA2402F508EB3400F50980499003060C
:10322C00E0FA9002EFE0F812332D94171233254098
:10323C000D900306E0F87416C3989002EFF0123369
:10324C003612195A7CF07D0274072AFA7403340082
:10325C00FB120FDE74021216ED9002EFE0F89003F1
:10326C0006E028F0050AE50C2416F582E50D12316E
:10327C00E9E0F8E50AC398400302330E900306E038
:10328C00C39416507DE50AC333F8E433F9E50C28F2
:10329C00FEE50D39FF851882851983AC82AD838ECE
:1032AC00828F8312368612073E8A108B11AC10ADBA
:1032BC0011EC4D7005750B018043E4F510F5117898
:1032CC001012195A7510EF751102781012195A75DF
:1032DC0010F0751102781012195A74061217231275
:1032EC001971791685088285098312368612085E53
:1032FC0074081216EDE9F50B70030232291238E747
:10330C0080107C067D03850882850983123686121F
:10331C0004BCA90B74020237E2E99400C365D033F4
:10332C0022EA28F8E43400F9E822E0F510751100DF
:10333C0078102274EA12174774FC1216D78A0C8B79
:10334C000D8C128D13EA2405F50AEB1238DB750887
:10335C0000750900E50A2402F510E50B3400F5119F
:10336C00740212172385820E85830F780E12195A58
:10337C00850A82850B83A3A3A3A3123E2712195A95
:10338C00E50A2405F50EE50B3400F50F780E12193D
:10339C005A8510828511831238E112368012073853
:1033AC0074061216ED8A0E8B0FAE0EAF0FE50C24C1
:1033BC0002F50EE50D3400F50F8040888289837488
:1033CC00FFF005081231DE74FFF005089002EFE003
:1033DC00F50C750D00780C12195A7CF07D028508DD
:1033EC000C7408250CFA74033400FB120FDE740203
:1033FC001216ED9002EFE02508F508EE4F60718E85
:10340C00828F83A3A3A3E0F9850E82850F831236E6
:10341C0086120726E9F509EE2404122E09E97044F8
:10342C00E4F514F515781412195A7514EF75150284
:10343C00781412195A7514F0751502781412195A59
:10344C0074081217231219717911EEFCEFFD850E19
:10345C0082850F8312368612085E74081216EDE907
:10346C00F5096027850C82850D831235671238F4B7
:10347C00E508700302354D123571850E82850F8378
:10348C001236861204C27900023562850882AA823D
:10349C00EA9002EF7009E02404900307F08022E028
:1034AC00F8900307E0F514E82404FCE43400FDEC88
:1034BC0065147001ED70C012332D94121233255027
:1034CC00B6850C82850D83E0C0E074082A1231E5C4
:1034DC00D0E0F00508850C82850D83A3E0C0E012D6
:1034EC0031DED0E012358385820C85830D780C1289
:1034FC00195A7404121723121971851082851183BD
:10350C0012414E12074474041216ED8A0C8B0DAE48
:10351C000CAF0D85080C7408250CF874033400F9F5
:10352C00EE4F70030233C7851882851983E08882B9
:10353C008983123583A3E0C0E01231DED0E0023380
:10354C00D5E509700375090A850A82850B83123546
:10355C00671238F4A90974040231D612413D851260
:10356C008285138322900307E0F5F0E5088490032D
:10357C0006F07C067D0322F00508851882851983E8
:10358C002274EC12174774FE1216D78A088B098C1A
:10359C000E8D0FEA2405FEEB3400FF851882851989
:1035AC0083AC82AD838E828F8312368612073E8A5D
:1035BC000A8B0BEE2418122E09EA450B7003023607
:1035CC00571237C9503285188285198312368612E4
:1035DC0008528A108B11EA4511606B7912AC0AAD56
:1035EC000B850882850983123686851082851183A6
:1035FC00121745E9F50A7058E4F50AF50B780A122A
:10360C00195A8E828F83A3A3E0F50A780A12195AED
:10361C00EE24031238D8780A12195A8E828F83122C
:10362C00369012086474061216EDE9F50A702185BD
:10363C000C82850D83E0701F850882850983123604
:10364C00861204C88011750A0E8009750A0180045F
:10365C00E50A60031238E7850C82850D83E060046F
:10366C0079008002A90A74021216ED7F0C02181957
:10367C007C067D03850A82850B8312368A22E0FA4A
:10368C00A3E0FB22E0FCA3E0FD8508828509831200
:10369C00368A2274EE12174774FE1216D78A088BDC
:1036AC00098C0C8D0DEA2405FEEB3400FF750E0021
:1036BC00851882851983AC82AD838E828F831236F6
:1036CC008612073E8A0A8B0BEA450B70030237B54C
:1036DC001237C9503585188285198312368612081F
:1036EC00528A0E8B0FEA450F605E7912AC0AAD0B55
:1036FC00850882850983123686850E82850F831292
:10370C001745E9F50E60030237B8850882850983F1
:10371C001239CFAA0AFB1208468A108B11A810A9DD
:10372C0011E849701E7AFF7BFF1208468A108B1134
:10373C00A810A911E849606C88828983E50AF0A376
:10374C00E50BF0750A008007750E0E805F050A9078
:10375C0002ECE0FAE50AC39A504AE50A75F017A4A0
:10376C00FAABF088828983A3A3E02AFAA3E03BFB9F
:10377C008A828B831238E1EC4D70D2750A17750B67
:10378C0000780A12195AEEFCEFFD120FDE740212C9
:10379C0016EDEEFCEFFD8508828509831236861244
:1037AC0004CE8014750E098003750E011241358507
:1037BC000C82850D831238F4A90E023320E50824FF
:1037CC0002F508E5093400F5098A828B83A3A3A3CB
:1037DC00E0A2E52274041216ED7F0A02181974ECAB
:1037EC001217478C108D11EA2405F50CEB122E0CD8
:1037FC00750F00EA2402F50AEB1238DB850A82F514
:10380C00831236861208468A088B09EA450970032A
:10381C000238CD750E008071850C82850D83E064B5
:10382C0001704F8E828F83A3A31219718E828F83A6
:10383C00A3A3A3A3E0F512751300781212195AEE84
:10384C002405F512EF3400F513781212195A1236BA
:10385C008012086474061216EDE9F50F6014850CDD
:10386C0082850D83E4F01241358510828511831217
:10387C0038F47C177D007900EEFAEFFB120FF68E10
:10388C00828F83E4F0A3F0050E9002ECE0F8E50ED5
:10389C00C398501EE50E75F017A4F8A9F0850882A0
:1038AC00850983A3A31242C21238E1EC4D600302D6
:1038BC00382485088285098374FFF0A3F0E50F7026
:1038CC00061236801204D4A90F023677F50AEF34AB
:1038DC0000F50B22A3E0FCA3E0FD228E828F831265
:1038EC00413D850E82850F83E8F0A3E9F022C0826A
:1038FC00C0839002E8E06A7003A3E06B70067AE87C
:10390C007B0280047A007B00022BE7C082C08378A4
:10391C00008C828D83E06A7003A3E06B7010E875F5
:10392C00F003A4F8A9F0EC28FAED39FB8015088C0B
:10393C00828D83A3A3A3E06A7003A3E06B60DF7A9C
:10394C00007B00022BE774F61217471208108A82CC
:10395C008B83E582458370067A007B008007A3A3E6
:10396C00A3A3123686023FE674F2121747E9FE74DF
:10397C000E1217231239CF7410121723123E478CD4
:10398C00828D83E064027036A3124143F50CA3E0F0
:10399C00F9A80C74026870037429697021750C0203
:1039AC00750D00780C12195A780812195A780A12E7
:1039BC00195AEEF912088874061216ED8002790174
:1039CC0002406AE0F50AA3E0F50B2274E8121747EF
:1039DC0074FB1216D7E9851882851983F08A168B29
:1039EC0017ECFEEDFF751000741D121723124139F0
:1039FC00741D1217231238F48E828F83A3A3A3E0B5
:103A0C00A2E4502D741D1217231236861208528A06
:103A1C00828B83E58245837003023E18790AEEFCA3
:103A2C00EFFDAA16AB17121745E9F5106003023E1D
:103A3C001B741F121723123E4774211217231239BD
:103A4C00CF7423121723E0F50EA3E0F50F8E828FAF
:103A5C0083E064026003023DC6A3124139850882EB
:103A6C00850983A3858212858313EE2406122E0901
:103A7C0088828983E0FAA3E0F9EA2400F514E4399A
:103A8C00F51578141219E4010000280128BB3A0737
:103A9C00000228803B0328ED3A0029B73C0129E2BB
:103AAC003C0229833C0329B73C0429613DC63DE512
:103ABC000E450F6003023DC1850C82850D83123EBD
:103ACC003CFAE9FB8A828B83E0850A82850B8312A0
:103ADC003E7212195A8A828B83A3E0FCA3E0023D4A
:103AEC004BE50E450F6003023DC1850A82850B83B1
:103AFC007401F0123E4F850882850983F07C007DAD
:103B0C00008E828F83A3A3A3A3E02401FAA3E03445
:103B1C0000FB12073EEA4B60418A828B83E0240251
:103B2C00F8850A82850B83E028F0EA2404F8EB344C
:103B3C0000F988828983E0851282851383123E8482
:103B4C00123E7212195A8A828B831238E0E50824CD
:103B5C0003FAE5093400FB023D50850A82850B838C
:103B6C00E02404F07C047D007900AA12AB13120F40
:103B7C00F6023E1BE50E450F6003023DC1123E4F9F
:103B8C00FEA3E0FF850A82850B837404F0EE8508A2
:103B9C0082850983F0EF851282851383F0740312FA
:103BAC001723AC82AD83EEFAEFFB12073E8A0C8B27
:103BBC000DEA450D7003023C648A828B83A3A31229
:103BCC002A92740112172385820E85830F780E12A8
:103BDC00195A74051217231219717CFF7DFF1207F5
:103BEC004474041216ED8B0FEA450F7033850C826A
:103BFC00850D83123E2712195A850C82850D83A3DD
:103C0C001219717C027D007AAA7B811205707404F2
:103C1C001216EDE9700A740112172374FFF0A3F069
:103C2C008E828F83E064027039750C02750D0078FA
:103C3C000C12195A8E828F831238E0E5082404FA8C
:103C4C00E5093400FB120FDE74021216ED850A82B0
:103C5C00850B83E0240280097401121723EEF0A374
:103C6C00EFF07401121723123E38F074011217236F
:103C7C00A3123E30023DBBE50E450F6003023DC171
:103C8C00850C82850D831238E1AA16AB1712087CBD
:103C9C00850A82850B837402F0EA85088285098384
:103CAC00F0851282851383EB023DBEE50E450F6055
:103CBC0003023DC1123E4FF8A3E0F9850A82850B41
:103CCC00837402F0E8850882850983F0E985128205
:103CDC00851383023DBE850C82850D8312368612B8
:103CEC000FD8EAFC8C82A882C3950EE4950F405F36
:103CFC00E8650E7002E50F70047C00802285188246
:103D0C00851983E0FAE50E2AFAE50F3400FBC3EAC5
:103D1C0098EB94005003E08005E50ECCC39CFCECC2
:103D2C00850A82850B83F08C0A750B00780A1219B0
:103D3C005A850C82850D83E0250EFCA3E0350FFD22
:103D4C00AA08AB09120FDE74021216ED023E1B75A7
:103D5C001007023E1BE50E450F705A850C82850D2F
:103D6C0083124139850A82850B837407122A9E12AD
:103D7C003E30122A9EA3E0851282851383F0E8243C
:103D8C0002FAE93400FB8A828B83123E30123E5FCA
:103D9C00123E38A3123E68123E41F0E82405F8E9C1
:103DAC003400F988828983123E41A3123E84A3A376
:103DBC00A3A3F0805A75100B8055741D1217231293
:103DCC0036861208108A828B83E5824583603D1209
:103DDC004139880C890DE8450D6031780E12195A5D
:103DEC00780A12195A780812195A7406121723E015
:103DFC00F9EEFCEFFDAA16AB17850C82850D83122C
:103E0C00174574061216EDE9F510800375100EA90E
:103E1C001074051216ED7F10021819E0F50E750FCF
:103E2C0000780E22E085088285098322123E8E22BC
:103E3C0012413DE822123E8EA3A322E0F508A3E036
:103E4C00F50922850C82850D83E0F8A3E0F58388C3
:103E5C0082E022A3A3F08A828B83A322F08882893A
:103E6C0083A3A3A3A322F08A828B83123E7B22E03E
:103E7C00F50A750B00780A22F088828983A3123E1A
:103E8C008E22E0850882850983A3A32274EE121783
:103E9C004774FE1216D78A0A8B0BECFAEDFB7414DE
:103EAC00121723E0F510A3E0F5117416121723E096
:103EBC00FE7418121723E0F50EA3E0F50F85188297
:103ECC00851983AC82AD8312073E8A0C8B0DEA45B3
:103EDC000D60498518828519831236861208108A5E
:103EEC00828B83E5824583602FA3A3123E47E508AE
:103EFC0045096024780E12195A781012195AEEF9E5
:103F0C00AC0CAD0DAA0AAB0B850882850983121780
:103F1C004574041216ED8006790E80027901023385
:103F2C002074F612174774FE1216D7740C1217234E
:103F3C00123E3C851882851983F07401121723E90F
:103F4C00F0E4F508F509780812195A750802780892
:103F5C0012195A740412172385820885830978086C
:103F6C0012195A12086474061216ED74021216ED28
:103F7C00806874F7121747EAFEEBFF89087C1F7DF7
:103F8C000312087CEA5402600BA908EEFAEFFB124C
:103F9C0007328002790102299A74F612174774FFCE
:103FAC006A700374FF6B70168C828D83123FEBE486
:103FBC00F08C828D83A3A3A3123FEBA3801812086D
:103FCC004C8A088B09A808A909E849600D888289E0
:103FDC008374FF122A9CA3A3E4F07F0202181974C5
:103FEC00FFF0A3F08C828D83A3A32274F6121747E3
:103FFC0012084C8A828B83E58245836006A3A3E07A
:10400C00FA80027A007B0080D174F21217478A087A
:10401C008B09ECFEEDFF740E121723E0F50A120863
:10402C004C8A0C8B0DA80CA90DE8497026EEFCEF00
:10403C00FD7AFF7BFF12084C8A0C8B0DA80CA90D86
:10404C00E84970047911801688828983E508F0A309
:10405C00E509F088828983A3A3E50AF079007F063D
:10406C0002181974EE121747EAFEEBFF8C088D0943
:10407C00890C741412172312413974161217231257
:10408C003686750D00E849600302412D7402650CFB
:10409C0060030241287412121723124143FCA3E05F
:1040AC00F9EC2400F50EE439F50FEAF4F8EBF4F929
:1040BC00EC58F8E50F59F9E849705CE5082406F866
:1040CC00ED3400F9880A890B8882F58312414E126F
:1040DC00087C8A108B11E50E65107004E50F6511D4
:1040EC006042780E12195A850A82850B8312414E52
:1040FC0012088274021216EDE9F50D7027780E1273
:10410C00195A850882850983A3A312414C12089A77
:10411C0074021216ED800D750D808008750D0D80E2
:10412C0003750D0BA90D0237E58E828F8312413D6D
:10413C0022E0F8A3E0F92212413D88828983E02233
:10414C00A3A3E0FCA3E0FDEEFAEFFB2274E8121748
:10415C004774E71216D7851882851983EAF0A3EB0A
:10416C00F08C168D17890E750800750900743112C4
:10417C001723E0F512A3E0F5137433121723E0F5BF
:10418C0014A3E0F5157435121723E0F50FE5097546
:10419C00F003A4F8A9F08518828519831242C2E0B5
:1041AC00F47003A3E0F470030242A5EE2402F50CB4
:1041BC00EF1242B8E070030242A585160A85170B70
:1041CC00780A12195AAC14AD15AA12AB13120804C2
:1041DC0074021216ED8A0A8B0BEA450B700302422D
:1041EC00A5E4F510F511781012195A74061217235C
:1041FC00858210858311781012195A7409121723AD
:10420C00858210858311781012195A8512828513B4
:10421C0083A3A3A3A31219717914AC0AAD0B8E82DC
:10422C008F8312368612085E74081216EDE97069D7
:10423C00850A82850B83A3A3A3A3124139740212AE
:10424C0017231238F4850C82850D83E0A2E05018F8
:10425C00A90E7402121723AC82AD838E828F831247
:10426C003686120756E94208850C82850D83E0A23A
:10427C00E15026E50FF50A780A12195EA90E7403AF
:10428C00121723AC82AD838E828F8312368612076F
:10429C005074011216EDE942080509E509C39402B0
:1042AC005003024199A9087419023E1F3400F50D00
:1042BC00850C82F58322E028FEA3E039FF8E828FE5
:1042CC00832274F2121747EAFEEBFF890B74016527
:1042DC000B600E7402650B706A7901120A5CE9704E
:1042EC0062EEFAEFFB1208468A088B09EA45096070
:1042FC0047750A00800B7C177D007900120FF605BC
:10430C000A9002ECE0F8E50AC3985021E50A75F032
:10431C0017A4F8A9F0850882850983A3A3E028FADD
:10432C00A3E039FB8A828B83122BEE70C98508823D
:10433C0085098374FFF0A3F07C1F7D03EEFAEFFB7D
:10434C0012087602406A74F21217478A088B09EC3D
:10435C00FEEDFF740E1217231239CF900A38E0F4D9
:10436C00603D7A097B00121002EA4B60328A828B24
:10437C008374B1F0A3E4123E61A3123E5FA3E5087F
:10438C00F0A3E5091243AEEEF0A3EF1243AEA3A3E4
:10439C00E50AF0A3E50BF0900A38E0F912100E02D2
:1043AC00406AF08A828B83A3A3A3A3A322C082C0FA
:1043BC00839061907404F0A37448F0A37402F0909D
:1043CC0061807440F09061BC7403F0906187741943
:1043DC00F0906265741BF0906249E0C39413906195
:1043EC009C40107409F09060667401F090619F74A9
:1043FC0028800D740BF0906066E4F090619F742C33
:10440C00F090619A7433F0A37455F09061A0743AF3
:10441C00F0900544E064017009C2919003AB74679D
:10442C0080059003AB7461F0902956E493906186FB
:10443C00F0902950E493F46027E493540FF89061C2
:10444C0085E0686012E5C654B84441F5C6E59E5453
:10445C0047644170F8E8F053C6B8E59E544770FACB
:10446C007905120DC2024620C082C083E9540FF9AF
:10447C00906185E0696012E5C654B84441F5C6E523
:10448C009E5447644170F8E9F053C6B8E59E544712
:10449C0070FA024620C082C083E5A8F853A87E902B
:1044AC006181E4F0A3F0A3F0C2BA539AFEC28975FD
:1044BC009B00C2C275E90075910075BF0075A9110A
:1044CC0075B905906181F0A374C0F0A3E4F0D2BA81
:1044DC00439A0174805842A8024620C082C083745B
:1044EC00F81216D79003A9E0F8A3E0F9E849700395
:1044FC000246159003A9E054406023790885188280
:10450C00851983AA82AB83120C1E851882851983A8
:10451C00AA82AB8312090C9003A9E054BFF0E054BB
:10452C00806010790C7A6A7B05120C1E9003A9E04E
:10453C00547FF0E0A2E0503190619A7433F0A37490
:10454C0055F09061A0743AF0900544E06401700954
:10455C00C2919003AB746780059003AB7461F01249
:10456C0009129003A9E054FEF0E05402603190610E
:10457C009A743FF0A3745AF09061A0747FF0900588
:10458C0044E064017009D2919003AB747180059082
:10459C0003AB746AF01209129003A9E054FDF0E029
:1045AC0054046013902954E493906186F012091816
:1045BC009003A9E054FBF0E054086013902955E4F3
:1045CC0093906186F01209189003A9E054F7F0E07B
:1045DC0054106013902956E493906186F0120918D8
:1045EC009003A9E054EFF0E05420600A12091890EF
:1045FC0003A9E054DFF0A3E05401600D120B461246
:10460C00091E9003AAE054FEF074081216ED02463F
:10461C0020F0A3F0D083D08202013274EC12174741
:10462C0074F41216D7851882851983AC82AD837504
:10463C00838175828774041215EA90295493F4606F
:10464C00030247B3907808E0C394025003024793E7
:10465C007404121723AC82AD8375838175822A741E
:10466C00081215EA851882851983858212858313B1
:10467C007404121723AC82AD83750EFF750FFF7F88
:10468C00FF7E00750C48750D78801574086E7003EC
:10469C0002472774096E7003024727740A6E607B09
:1046AC00850C82850D83780812158F8C828D83A9D9
:1046BC0009E50AC9F88810741878081214BDE510B9
:1046CC004508F8C3E098A3E099850C82850D8378A2
:1046DC000812158F40188C828D8374187808121468
:1046EC00BDE5104508F8E0C398F8A3E0801C7418E9
:1046FC0078081214BDE5104508FAE9FB8C828D830D
:10470C00E0F8A3E0F9EAC398F8EB99F9C3E8950E41
:10471C00E9950F5006880E890FEEFF0EE50C240468
:10472C00F50CE50D3400F50DEEC394135003024661
:10473C009774FF650E700474FF650F60238F087407
:10474C000278081216C474482508F5827478350965
:10475C00F583780812158F851282851383E508F08E
:10476C00EC2402FCED3400FD851282851383A385B5
:10477C008212858313740C121723E5826C7003E587
:10478C00836D60030246857508017509007808126F
:10479C00195A7402121723AC82AD837A557B0A1214
:1047AC0011E274021216ED740C1216ED7F0C021845
:1047BC0019C082C0839061AE7468F0A3746AF090E3
:1047CC00624574FBF0A304F053F4FD43FE02900524
:1047DC00447401F09061A0E0643A90619A70237483
:1047EC0033F0A37455F09061A0743AF07401640135
:1047FC007009C2919003AB746780289003AB74610D
:10480C008021743FF0A3745AF09061A0747FF0740F
:10481C000164017009D2919003AB7471800590030F
:10482C00AB746A02461F7F08021819C082C08390BD
:10483C0004F6E06401700A9004FBE06004790C80DB
:10484C00027900024620C082C08375E1F19004F920
:10485C00E0605B14600914605F14605714705E12A2
:10486C000B589004EFE0F97AF07B04120D447AD6E1
:10487C007BBE7C897D8E120D7A7A557B557C557D5D
:10488C0000120D509004FAE0F9120D5C7901120D32
:10489C00B69004EDE0F8A3E0C82416F582E83400E5
:1048AC00F5837470F0A3740BF07900024620120BA0
:1048BC005E80AF120B6480AA120B6A80A5791280FD
:1048CC00EA74F012174775D90D9004DAE0A2E0E40F
:1048DC00331313F89004EFE0C4333354C04844014D
:1048EC00F5D978ED790488828983A3A3A3E0F5D95F
:1048FC0088828983A3A882A983E864F37003E9649E
:10490C000470E378DA790488828983A3E0F5D98886
:10491C00828983A3A882A983E864E07003E9640414
:10492C0070E575E1959004DAE0F97ADB7B04120D01
:10493C004A900A5A7404F0A3740BF0A37466F0A3A3
:10494C00740CF0A37466F0A3740CF0A37466F0A35B
:10495C00740CF0A3740AF0A3740BF0A37466F0A3A8
:10496C00740CF0A37422F0A3740BF0900A687466B4
:10497C00F0A3740CF0A37466F0A3740CF0A374662B
:10498C00F0A3740CF0A37466F0A3740CF0A374661B
:10499C00F0A3740CF0A37466F0A3740CF09004F9FB
:1049AC00E064019004ED7012E0F8A3E0F5838882D6
:1049BC00A3A37508007509088010E0F8A3E0F5833F
:1049CC008882A3A3750804750900750A00750B008D
:1049DC007808121508750CFF750DFF750EFF750F15
:1049EC00007808790C1215569004EDE0F8A3E0C895
:1049FC00240EF582E83400F583780812159E900495
:104A0C00EDE0F8A3E0C82414F582E83400F58374D3
:104A1C0013F09003A77402F002483274F712174790
:104A2C009004FFE02407F5D99004EFE0C43333542D
:104A3C00C0F5D978ED790488828983A3A3A3E0F526
:104A4C00D988828983A3A882A983E864F37003E9D7
:104A5C00640470E39004FFE0601F78ED7904FAE8D9
:104A6C002413F582E93400F583E0F5D98882898333
:104A7C00A3A882A9831AEA70E690051FE02407F523
:104A8C00D99004EFE0C4333354C04404F5D978ED25
:104A9C00790488828983A3A3A3E0F5D988828983CA
:104AAC00A3A882A983E864F37003E9640470E3901B
:104ABC00051FE0601F78ED7904FAE82433F582E9EC
:104ACC003400F583E0F5D988828983A3A882A98371
:104ADC001AEA70E675E195900A5A7410F0A3740BFB
:104AEC00F0A37466F0A3740CF0A37466F0A3740CBA
:104AFC00F0A37466F0A3740CF0A3740AF0A3740B07
:104B0C00F0A37466F0A3740CF0A37422F0A3740BDE
:104B1C00F0900A687466F0A3740CF0A37466F0A3AA
:104B2C00740CF0A37466F0A3740CF0A37466F0A379
:104B3C00740CF0A37466F0A3740CF0A37466F0A369
:104B4C00740CF09004EDE0F8A3E0C8240EF582E8B4
:104B5C003400F58374FFF0A3F0A3F0A3F09004ED00
:104B6C00E0F8A3E0C82414F582E83400F58374124D
:104B7C00F09003A77401F0FF02181974F71217478D
:104B8C009004FFE02407F5D99004EFE0C4333354CC
:104B9C00C04402F5D978ED790488828983A3A3A354
:104BAC00E0F5D988828983A3A882A983E864F3708D
:104BBC0003E9640470E39004FFE0601F78ED79046E
:104BCC00FAE82413F582E93400F583E0F5D98882FC
:104BDC008983A3A882A9831AEA70E675E195900AE5
:104BEC005A741CF0A3740BF0A3741CF0A3740BF098
:104BFC00A3741CF0A3740BF0A3741CF0A3740BF03F
:104C0C00A3741CF0A3740BF0A3741CF0A3740BF02E
:104C1C00A37422F0A3740BF0900A687466F0A3746A
:104C2C000CF0A37466F0A3740CF0A37466F0A37478
:104C3C000CF0A37466F0A3740CF0A37466F0A37468
:104C4C000CF0A37466F0A3740CF09004EDE0F8A3E0
:104C5C00E0C8240EF582E83400F58374FFF0A3F06D
:104C6C00A3F0A3F09004EDE0F8A3E0C82414F582BF
:104C7C00E83400F5837414F09003A77404F0024F29
:104C8C004E74F71217479004FFE02407F5D99004EF
:104C9C00EFE0C4333354C04406F5D978ED79048879
:104CAC00828983A3A3A3E0F5D988828983A3A882F0
:104CBC00A983E864F37003E9640470E39004FFE0F3
:104CCC00601F78ED7904FAE82413F582E93400F5D5
:104CDC0083E0F5D988828983A3A882A9831AEA7014
:104CEC00E690051FE02407F5D99004EFE0C43333B8
:104CFC0054C04404F5D978ED790488828983A3A340
:104D0C00A3E0F5D988828983A3A882A983E864F3F8
:104D1C007003E9640470E390051FE0601F78ED797F
:104D2C0004FAE82433F582E93400F583E0F5D988F8
:104D3C00828983A3A882A9831AEA70E675E195900B
:104D4C000A5A7416F0A3740BF0A37466F0A3740CD7
:104D5C00F0A37466F0A3740CF0A37466F0A3740C47
:104D6C00F0A37466F0A3740CF0A37466F0A3740C37
:104D7C00F0A37422F0A3740BF0900A687466F0A38D
:104D8C00740CF0A37466F0A3740CF0A37466F0A317
:104D9C00740CF0A37466F0A3740CF0A37466F0A307
:104DAC00740CF0A37466F0A3740CF09004EDE0F8AE
:104DBC00A3E0C8240EF582E83400F58374FFF0A359
:104DCC00F0A3F0A3F09004EDE0F8A3E0C82414F5F0
:104DDC0082E83400F5837415F09003A77403F00295
:104DEC004F4EC082C0839004EDE0F8A3E0C82406C7
:104DFC00F582E83400F583E402461D74F712174778
:104E0C009003D5E0F875F003A4C8AAF02AF974D77A
:104E1C0028F8740339F9E82405FAE93400FB8A828E
:104E2C008B83E0FCA3E0FD88828983A3A3A3A3A3C7
:104E3C00A3A3A3A3ECF0A3EDF088828983A3A3A37F
:104E4C00A3A3A3A3E024FFF8A3E034FFF98A828B89
:104E5C0083E8F0A3E9F0024F4E74F7121747EAFE0D
:104E6C00EBFF9061D0E06003024F4275D90E75D90B
:104E7C000375D904EE248BF582EF3400F583E582BB
:104E8C002408F8E5833400F9E0F5D9A3E8658270CD
:104E9C0003E9658370F2EE2483F582EF3400F58329
:104EAC00E5822404F8E5833400F9E0F5D9A3E8653C
:104EBC00827003E9658370F275E1957908EE248BB5
:104ECC00FAEF3400FB120C127904EE2483FAEF345F
:104EDC0000FB120C127C00EEF8EFF9ECFAC3E49A2A
:104EEC00FA95E0FBEE2AFAEF3BFBEA248AF582EB1B
:104EFC003400F583E0C0E0E824AAF582E93400F53B
:104F0C0083D0E0F00C88828983A3A882A983ECC3A8
:104F1C00940840C7EE246FF582EF3400F583E0F877
:104F2C00A3E0F9EE2471F582EF3400F583E8F0A3E9
:104F3C00E9F07901800279008008F0EEA2E092AFEE
:104F4C0079007F01021819C082C08375D90275D906
:104F5C000375D90575E195EA246FF582EB3400F5FC
:104F6C0083E0F8A3E0F9EA2471F582EB3400F583D1
:104F7C00E8F0A3E9F0790102462074F6121747EA2B
:104F8C00FEEBFF90054A7406F075084A7509057822
:104F9C000812195A7C017903120C5A74021216ED7C
:104FAC0075D90675D90375824A758305E0F5D9A3C1
:104FBC00E582644F7004E583640570F075E19590AB
:104FCC0003A7E06408701EEE246FF582EF3400F541
:104FDC0083E0F8A3E0F9EE2471F582EF3400F58359
:104FEC00E8F0A3E9F0790102525474F6121747EA7B
:104FFC00FEEBFF9061D0E07066780190054A740B6F
:10500C00F09003A7E06407701975084A75090578D4
:10501C000812195A7C017903120C5A74021216EDFB
:10502C007805740128F5D975D90375824A758305FD
:10503C00E8FAE0F5D9A31AEA70F875E195EE246F59
:10504C00F582EF3400F583E0F8A3E0F9EE2471F576
:10505C0082EF3400F583E8F0A3E9F079018002795E
:10506C000002525474F7121747EAFEEBFF75D9038E
:10507C0075D90375D90DEE24DDF582EF3400F58377
:10508C00E0F5D975E1957904120D80EE246FF58267
:10509C00EF3400F583E0F8A3E0F9EE2471F582EF2C
:1050AC003400F583E8F0A3E9F07901024F4E74F671
:1050BC00121747EAFEEBFF9061D0E0F87480C398BA
:1050CC00FAEE2482F582EF3400F583E06004780474
:1050DC0080027800E8240BF8EAC398500302517F51
:1050EC007D0990054AEDF0EE24E2F8EF3400F97AF0
:1050FC004B7B057C0888828983E08A828B83F088CD
:10510C00828983A3A882A9838A828B83A3AA82AB78
:10511C00831CEC70E0EE2482F582EF3400F583E022
:10512C00601D75084A750905780812195A7C0979A9
:10513C0003EEFAEFFB120C5A74021216ED7D0D748D
:10514C00012DF5D975D90375824A7583058D08E053
:10515C00F5D9A31508E50870F675E1957904120DDB
:10516C0080EE241DF582EF3400F583E4F0A3F07992
:10517C00018002790002525474F6121747EAFEEBD2
:10518C00FF9061D0E0F87480C398FAEE2482F58227
:10519C00EF3400F583E06004780480027800E824A2
:1051AC0008F8EAC3985003025252780690054A74E4
:1051BC000CF09003C4E090054BF09003C5E0900513
:1051CC004CF09003C6E090054DF09003C7E09005BD
:1051DC004EF09003C8E090054FF0EE2482F582EF7C
:1051EC003400F583E0601B75084A750905780812D0
:1051FC00195A7C067903EEFA120C5A74021216ED47
:10520C00780A740128F5D975D90375824A75830516
:10521C008808E0F5D9A31508E50870F675E19579CD
:10522C0004120D80EE246FF582EF3400F583E0F864
:10523C00A3E0F9EE2471F582EF3400F583E8F0A3D6
:10524C00E9F07901800279007F0202181974F612D4
:10525C001747EAFEEBFF9061D0E0F87480C398FA30
:10526C00EE2482F582EF3400F583E060047804804C
:10527C00027800E82404F8EAC39850030253337808
:10528C000290054AE8F0EE24F4F582EF3400F58341
:10529C00E090054BF0EE2482F582EF3400F583E0CC
:1052AC00601B75084A750905780812195A7C027931
:1052BC0003EEFA120C5A74021216ED7806740128D9
:1052CC00F5D975D90375824A7583058808E0F5D937
:1052DC00A31508E50870F675E195EE2473F582EFD9
:1052EC003400F583E4F0EE247FF582EF3400F5838F
:1052FC00E4F0EE241DF582EF3400F583E4F0A3F026
:10530C007904120D80EE240DF582EF3400F583E064
:10531C00F8A3E0F9EE2471F582EF3400F583E8F0A0
:10532C00A3E9F079018002790002525474F6121745
:10533C00479061D0E0F87480C398FCEA2482F5822F
:10534C00EB3400F583E06004780480027800E824F4
:10535C0004F8ECC398405B790290054A7407F0EAB4
:10536C0024F5F582EB3400F583E090054BF0EA244C
:10537C0082F582EB3400F583E0601875084A7509F4
:10538C0005780812195A7C0209120C5A740212166A
:10539C00ED7906740129F5D975D90375824A75839F
:1053AC0005E9F8E0F5D9A318E870F875E1957901ED
:1053BC008002790002525474F5121747E9FCA2AF2F
:1053CC00E433F50AC2AF7D0080010DEA246EF5824C
:1053DC00EB3400F583E0F8EDC398501A8D08EA25FC
:1053EC0008F8EB3400F9E8246AF582E93400F58317
:1053FC00E06C70D68024EA246EF8EB3400F9E0FE01
:10540C00EA2EFAEB3400FBEA246AF582EB3400F561
:10541C0083ECF088828983E004F0E50AA2E092AF85
:10542C007F0302181974F6121747A2AFE433FDC2BA
:10543C00AFEA246EF582EB3400F583E014F07C00C7
:10544C0060368C08EA2508F8EB3400F9E8246BF593
:10545C0082E93400F583E0C0E0E8246AF582E9349F
:10546C0000F583D0E0F00CEA246EF582EB3400F505
:10547C0083E0F8ECC39840CAEA246DF582EB340063
:10548C00F58374FFF0EA2469F582EB3400F583E4CC
:10549C00F0EDA2E092AF025254C082C083E5A8F8AE
:1054AC00C2AFEA246AF582EB3400F583E9F0EA2412
:1054BC0069F582EB3400F583E4F0E8A2E7A2E79209
:1054CC00AF02462074F3121747EAFEEBFFECFAED3D
:1054DC00FB8A828B83A3A3A3A3E0541FF0EE243694
:1054EC00F582EF3400F583E4F0F50AEEFCEFFD8A6B
:1054FC00828B83E0C0E0EC245DF582ED3400F58313
:10550C00D0E0F0750B00E50A33333354F8F50C8A10
:10551C00828B83E0F508750900E50B78081216A557
:10552C00E508A2E0502FEE2436F8EF3400F988821B
:10553C008983E0F508EE2508F508EF3400F509E558
:10554C00082438F582E5093400F583E50CF08882EF
:10555C008983E004F0050B050CE50BC3940840AF00
:10556C00050A8A828B83A3AA82AB838C828D83A348
:10557C00AC82AD83E50AC3940550030254FB7F054E
:10558C0002181974F71217479003D3E064017003E3
:10559C000256ED7A009003D9E060030256ED7401D7
:1055AC00F0A3E4F0A3F090043904F090043EF090E2
:1055BC0003DCE4F0A3F0A3F0A3F09003E604F09076
:1055CC00040CE4F09003EFF0A3F0A3F0A3F0A3F02D
:1055DC00A3F0A3F0900456F090044AF090043F74AA
:1055EC0080F0A3E4F0900445F09004C1F0A3F0A384
:1055FC00F0A3F0A3F0A3F0A3F0A3F09004CAF090F2
:10560C000459F09004A9F0A3F0A3F0A3F0A3F0A325
:10561C00F0A3F0A3F0A3F0A3F09004B5F09004B7BE
:10562C00F09004B3F09004CDF0A3F0A3F0A3F0A39A
:10563C00F0A3F0A3F0A3F078D37903E8246EF582FD
:10564C00E93400F58374FFF00A88828983A3A88269
:10565C00A983EAC3940440E37AD37B0378E1790409
:10566C0088828983E0C0E0EA2461F582EB3400F59E
:10567C0083D0E0F088828983A3A882A9838A828B55
:10568C0083A3AA82AB83E864E67003E9640470D058
:10569C007AD37B0378BA790388828983A3E0C0E04C
:1056AC00EA24E6F582EB3400F583D0E0F0888289B9
:1056BC0083A3A882A9838A828B83A3AA82AB83E863
:1056CC0064C27003E9640370CF9003D3E004F06408
:1056DC000170089003DBE09003D5F07AD77B038050
:1056EC00047A007B00024F4EC082C0839003DAE440
:1056FC00F09003D9F09003D3F0A3F0A374FFF075EE
:10570C00E1F1024620C082C083780079009003DA70
:10571C00E0600478D7790388828983A3A3A3A3E0EC
:10572C00F902462074F6121747EAFEEBFFEE2463EB
:10573C00F582EF3400F583E0F8A3E0F9E849700353
:10574C000257D5EE2463F8EF3400F97A007B00A2FF
:10575C00AFE433F508C2AF88828983E0FCA3E0FD97
:10576C00EC4D603A88828983E0FAA3E0FB8A828B55
:10577C0083E0FCA3E0FD88828983ECF0A3EDF08A42
:10578C00828B83E4F0A3F088828983E0FCA3E0FDA4
:10579C00EC4D700A88828983A3A3E4F0A3F0E5089A
:1057AC00A2E092AF1212669004E7E004F09004E8D5
:1057BC00E004F0EE2463F582EF3400F583E0F8A307
:1057CC00E0F9E849600302574F8E828F83A3A3A3AD
:1057DC00E0600F8E828F83A3A3A3E4F09003D4E048
:1057EC0014F09003D3E014F070069003D574FFF01E
:1057FC008E828F83A3A3E4F09004E6E0700D9003F7
:10580C00D4E0640170057900120D62EEFAEFFB1220
:10581C000C8A02525474F7121747EAFEEBFF8E8281
:10582C008F83A3A3A3A3E0FA7B00120960EEFAEF27
:10583C00FB120BDC120C72024F4EC082C08378BA82
:10584C00790388828983A3E4F088828983A3A88260
:10585C00A983E864C27003E9640370E69003BB7427
:10586C000102461F74F6121747EAFEEBFFEC240305
:10587C00F8ED3400F988088909EC2407F8ED3400B8
:10588C00F9E8FCE9FD8C828D83E0F8A3E0F985084A
:10589C0082850983E0FAA3E0FB12164CEE240DF589
:1058AC0082EF3400F583E8F0A3E9F08C828D83E07D
:1058BC00F8A3E0F9850882850983E0FAA3E0FB12DE
:1058CC00164C8B09EA45096013EE240DF582EF3472
:1058DC0000F583E02401F0A3E03400F0025254748C
:1058EC00F6121747EAFEEBFFEE242EF582EF34009A
:1058FC00F583E0FCA3E0FD780079FAECFAEDFB12FD
:10590C00164CEE246FF582EF3400F583E8F0A3E932
:10591C00F0780079FAECFAEDFB12164C8B09EA459B
:10592C00096013EE246FF582EF3400F583E0240157
:10593C00F0A3E03400F002525474EC121747EAFE64
:10594C00EBFF7414121723780812158F120D1A8A94
:10595C000C8B0D8C0E8D0F751002751100751200CD
:10596C00751300780C79101214F57510FF7511FF72
:10597C007512FF780C7910121556780C1219568E78
:10598C00828F83E0F8A3E0F5838882A3A31215AD80
:10599C0012269774041216EDE96003025AA98E823E
:1059AC008F83E02402F8A3E03400F9E8FAE9FB8ADB
:1059BC00828B83780812151B8A828B837508FF757E
:1059CC0009FF750AFF750B00780812157CEE240B85
:1059DC00F582EF3400F583C082C0838E828F83A35F
:1059EC00A3A3A3A3E02401F8A3E03400F9D083D04F
:1059FC0082E0687003A3E06970057901025AAB8EEE
:105A0C00828F83A3A3A3A3A3A3A3E02401F0A3E009
:105A1C003400F0EE2473F582EF3400F583E064017A
:105A2C007036EE2474F582EF3400F583E0F8A3E0D1
:105A3C00F98E828F83A3A3A3A3A3A3A3E06870030F
:105A4C00A3E0697013EE2474F582EF3400F583E063
:105A5C002401F0A3E03400F0EE247FF582EF340053
:105A6C00F583E064017036EE2480F582EF3400F5A6
:105A7C0083E0F8A3E0F98E828F83A3A3A3A3A3A34F
:105A8C00A3E0687003A3E0697013EE2480F582EF45
:105A9C003400F583E02401F0A3E03400F079000237
:105AAC0047B874F6121747E9FEECFFEA2462F58258
:105ABC00EB3400F583E064016003025B579061D026
:105ACC00E0F508EA2482F582EB3400F583E060040B
:105ADC007804800278007480C39508FC95E0FDEF93
:105AEC0028F8E43400F9E82402F8E93400F9EC98D9
:105AFC00ED99A2D265D033404E740A121723E0F50B
:105B0C0008A3E0F509EA2482F582EB3400F583E082
:105B1C006015780812195AEFFCEEF9120C5A74023F
:105B2C001216ED74042FFF74012FF5D98ED9EF6086
